{
  "address": "0xbD0BD7c8f1f36020c6bfb0fC6AF09f4bA177F7B3",
  "abi": [
    {
      "inputs": [
        {
          "internalType": "string[]",
          "name": "_eligibleTokenSymbols",
          "type": "string[]"
        },
        {
          "internalType": "address[]",
          "name": "_eligibleTokenAddresses",
          "type": "address[]"
        },
        {
          "internalType": "string",
          "name": "_baseToken",
          "type": "string"
        },
        {
          "internalType": "string",
          "name": "_baseERC20",
          "type": "string"
        }
      ],
      "stateMutability": "nonpayable",
      "type": "constructor"
    },
    {
      "anonymous": false,
      "inputs": [
        {
          "indexed": false,
          "internalType": "uint8",
          "name": "version",
          "type": "uint8"
        }
      ],
      "name": "Initialized",
      "type": "event"
    },
    {
      "anonymous": false,
      "inputs": [
        {
          "indexed": true,
          "internalType": "address",
          "name": "previousOwner",
          "type": "address"
        },
        {
          "indexed": true,
          "internalType": "address",
          "name": "newOwner",
          "type": "address"
        }
      ],
      "name": "OwnershipTransferred",
      "type": "event"
    },
    {
      "anonymous": false,
      "inputs": [
        {
          "indexed": false,
          "internalType": "address",
          "name": "who",
          "type": "address"
        },
        {
          "indexed": false,
          "internalType": "address",
          "name": "poolToken",
          "type": "address"
        },
        {
          "indexed": false,
          "internalType": "address[]",
          "name": "tco2s",
          "type": "address[]"
        },
        {
          "indexed": false,
          "internalType": "uint256[]",
          "name": "amounts",
          "type": "uint256[]"
        }
      ],
      "name": "Redeemed",
      "type": "event"
    },
    {
      "stateMutability": "payable",
      "type": "fallback"
    },
    {
      "inputs": [
        {
          "internalType": "address",
          "name": "_poolToken",
          "type": "address"
        },
        {
          "internalType": "address[]",
          "name": "_customPath",
          "type": "address[]"
        }
      ],
      "name": "autoOffsetExactInETH",
      "outputs": [
        {
          "internalType": "address[]",
          "name": "tco2s",
          "type": "address[]"
        },
        {
          "internalType": "uint256[]",
          "name": "amounts",
          "type": "uint256[]"
        }
      ],
      "stateMutability": "payable",
      "type": "function"
    },
    {
      "inputs": [
        {
          "internalType": "address",
          "name": "_fromToken",
          "type": "address"
        },
        {
          "internalType": "uint256",
          "name": "_amountToSwap",
          "type": "uint256"
        },
        {
          "internalType": "address",
          "name": "_poolToken",
          "type": "address"
        },
        {
          "internalType": "address[]",
          "name": "_customPath",
          "type": "address[]"
        }
      ],
      "name": "autoOffsetExactInToken",
      "outputs": [
        {
          "internalType": "address[]",
          "name": "tco2s",
          "type": "address[]"
        },
        {
          "internalType": "uint256[]",
          "name": "amounts",
          "type": "uint256[]"
        }
      ],
      "stateMutability": "nonpayable",
      "type": "function"
    },
    {
      "inputs": [
        {
          "internalType": "address",
          "name": "_poolToken",
          "type": "address"
        },
        {
          "internalType": "uint256",
          "name": "_amountToOffset",
          "type": "uint256"
        },
        {
          "internalType": "address[]",
          "name": "_customPath",
          "type": "address[]"
        }
      ],
      "name": "autoOffsetExactOutETH",
      "outputs": [
        {
          "internalType": "address[]",
          "name": "tco2s",
          "type": "address[]"
        },
        {
          "internalType": "uint256[]",
          "name": "amounts",
          "type": "uint256[]"
        }
      ],
      "stateMutability": "payable",
      "type": "function"
    },
    {
      "inputs": [
        {
          "internalType": "address",
          "name": "_depositedToken",
          "type": "address"
        },
        {
          "internalType": "address",
          "name": "_poolToken",
          "type": "address"
        },
        {
          "internalType": "uint256",
          "name": "_amountToOffset",
          "type": "uint256"
        },
        {
          "internalType": "address[]",
          "name": "_customPath",
          "type": "address[]"
        }
      ],
      "name": "autoOffsetExactOutToken",
      "outputs": [
        {
          "internalType": "address[]",
          "name": "tco2s",
          "type": "address[]"
        },
        {
          "internalType": "uint256[]",
          "name": "amounts",
          "type": "uint256[]"
        }
      ],
      "stateMutability": "nonpayable",
      "type": "function"
    },
    {
      "inputs": [
        {
          "internalType": "address",
          "name": "_poolToken",
          "type": "address"
        },
        {
          "internalType": "uint256",
          "name": "_amountToOffset",
          "type": "uint256"
        }
      ],
      "name": "autoOffsetPoolToken",
      "outputs": [
        {
          "internalType": "address[]",
          "name": "tco2s",
          "type": "address[]"
        },
        {
          "internalType": "uint256[]",
          "name": "amounts",
          "type": "uint256[]"
        }
      ],
      "stateMutability": "nonpayable",
      "type": "function"
    },
    {
      "inputs": [
        {
          "internalType": "address",
          "name": "_fromToken",
          "type": "address"
        },
        {
          "internalType": "uint256",
          "name": "_amount",
          "type": "uint256"
        }
      ],
      "name": "autoRedeem",
      "outputs": [
        {
          "internalType": "address[]",
          "name": "tco2s",
          "type": "address[]"
        },
        {
          "internalType": "uint256[]",
          "name": "amounts",
          "type": "uint256[]"
        }
      ],
      "stateMutability": "nonpayable",
      "type": "function"
    },
    {
      "inputs": [
        {
          "internalType": "address[]",
          "name": "_tco2s",
          "type": "address[]"
        },
        {
          "internalType": "uint256[]",
          "name": "_amounts",
          "type": "uint256[]"
        }
      ],
      "name": "autoRetire",
      "outputs": [],
      "stateMutability": "nonpayable",
      "type": "function"
    },
    {
      "inputs": [
        {
          "internalType": "address",
          "name": "",
          "type": "address"
        },
        {
          "internalType": "address",
          "name": "",
          "type": "address"
        }
      ],
      "name": "balances",
      "outputs": [
        {
          "internalType": "uint256",
          "name": "",
          "type": "uint256"
        }
      ],
      "stateMutability": "view",
      "type": "function"
    },
    {
      "inputs": [],
      "name": "baseERC20",
      "outputs": [
        {
          "internalType": "string",
          "name": "",
          "type": "string"
        }
      ],
      "stateMutability": "view",
      "type": "function"
    },
    {
      "inputs": [],
      "name": "baseToken",
      "outputs": [
        {
          "internalType": "string",
          "name": "",
          "type": "string"
        }
      ],
      "stateMutability": "view",
      "type": "function"
    },
    {
      "inputs": [
        {
          "internalType": "uint256",
          "name": "_fromETHAmount",
          "type": "uint256"
        },
        {
          "internalType": "address",
          "name": "_toToken",
          "type": "address"
        },
        {
          "internalType": "address[]",
          "name": "_customPath",
          "type": "address[]"
        }
      ],
      "name": "calculateExpectedPoolTokenForETH",
      "outputs": [
        {
          "internalType": "uint256",
          "name": "",
          "type": "uint256"
        }
      ],
      "stateMutability": "view",
      "type": "function"
    },
    {
      "inputs": [
        {
          "internalType": "address",
          "name": "_fromToken",
          "type": "address"
        },
        {
          "internalType": "uint256",
          "name": "_fromAmount",
          "type": "uint256"
        },
        {
          "internalType": "address",
          "name": "_toToken",
          "type": "address"
        },
        {
          "internalType": "address[]",
          "name": "_customPath",
          "type": "address[]"
        }
      ],
      "name": "calculateExpectedPoolTokenForToken",
      "outputs": [
        {
          "internalType": "uint256",
          "name": "",
          "type": "uint256"
        }
      ],
      "stateMutability": "view",
      "type": "function"
    },
    {
      "inputs": [
        {
          "internalType": "address",
          "name": "_toToken",
          "type": "address"
        },
        {
          "internalType": "uint256",
          "name": "_toAmount",
          "type": "uint256"
        },
        {
          "internalType": "address[]",
          "name": "_customPath",
          "type": "address[]"
        }
      ],
      "name": "calculateNeededETHAmount",
      "outputs": [
        {
          "internalType": "uint256",
          "name": "",
          "type": "uint256"
        }
      ],
      "stateMutability": "view",
      "type": "function"
    },
    {
      "inputs": [
        {
          "internalType": "address",
          "name": "_fromToken",
          "type": "address"
        },
        {
          "internalType": "address",
          "name": "_toToken",
          "type": "address"
        },
        {
          "internalType": "uint256",
          "name": "_toAmount",
          "type": "uint256"
        },
        {
          "internalType": "address[]",
          "name": "_customPath",
          "type": "address[]"
        }
      ],
      "name": "calculateNeededTokenAmount",
      "outputs": [
        {
          "internalType": "uint256",
          "name": "",
          "type": "uint256"
        }
      ],
      "stateMutability": "view",
      "type": "function"
    },
    {
      "inputs": [],
      "name": "contractRegistryAddress",
      "outputs": [
        {
          "internalType": "address",
          "name": "",
          "type": "address"
        }
      ],
      "stateMutability": "view",
      "type": "function"
    },
    {
      "inputs": [
        {
          "internalType": "string",
          "name": "_tokenSymbol",
          "type": "string"
        }
      ],
      "name": "deleteEligibleTokenAddress",
      "outputs": [],
      "stateMutability": "nonpayable",
      "type": "function"
    },
    {
      "inputs": [
        {
          "internalType": "address",
          "name": "_erc20Addr",
          "type": "address"
        },
        {
          "internalType": "uint256",
          "name": "_amount",
          "type": "uint256"
        }
      ],
      "name": "deposit",
      "outputs": [],
      "stateMutability": "nonpayable",
      "type": "function"
    },
    {
      "inputs": [],
      "name": "dexRouterAddress",
      "outputs": [
        {
          "internalType": "address",
          "name": "",
          "type": "address"
        }
      ],
      "stateMutability": "view",
      "type": "function"
    },
    {
      "inputs": [
        {
          "internalType": "string",
          "name": "",
          "type": "string"
        }
      ],
      "name": "eligibleTokenAddresses",
      "outputs": [
        {
          "internalType": "address",
          "name": "",
          "type": "address"
        }
      ],
      "stateMutability": "view",
      "type": "function"
    },
    {
      "inputs": [],
      "name": "owner",
      "outputs": [
        {
          "internalType": "address",
          "name": "",
          "type": "address"
        }
      ],
      "stateMutability": "view",
      "type": "function"
    },
    {
      "inputs": [],
      "name": "renounceOwnership",
      "outputs": [],
      "stateMutability": "nonpayable",
      "type": "function"
    },
    {
      "inputs": [
        {
          "internalType": "string",
          "name": "_tokenSymbol",
          "type": "string"
        },
        {
          "internalType": "address",
          "name": "_address",
          "type": "address"
        }
      ],
      "name": "setEligibleTokenAddress",
      "outputs": [],
      "stateMutability": "nonpayable",
      "type": "function"
    },
    {
      "inputs": [
        {
          "internalType": "address",
          "name": "_address",
          "type": "address"
        }
      ],
      "name": "setToucanContractRegistry",
      "outputs": [],
      "stateMutability": "nonpayable",
      "type": "function"
    },
    {
      "inputs": [
        {
          "internalType": "address",
          "name": "_toToken",
          "type": "address"
        },
        {
          "internalType": "address[]",
          "name": "_customPath",
          "type": "address[]"
        }
      ],
      "name": "swapExactInETH",
      "outputs": [
        {
          "internalType": "uint256",
          "name": "",
          "type": "uint256"
        }
      ],
      "stateMutability": "payable",
      "type": "function"
    },
    {
      "inputs": [
        {
          "internalType": "address",
          "name": "_fromToken",
          "type": "address"
        },
        {
          "internalType": "uint256",
          "name": "_fromAmount",
          "type": "uint256"
        },
        {
          "internalType": "address",
          "name": "_toToken",
          "type": "address"
        },
        {
          "internalType": "address[]",
          "name": "_customPath",
          "type": "address[]"
        }
      ],
      "name": "swapExactInToken",
      "outputs": [
        {
          "internalType": "uint256",
          "name": "",
          "type": "uint256"
        }
      ],
      "stateMutability": "nonpayable",
      "type": "function"
    },
    {
      "inputs": [
        {
          "internalType": "address",
          "name": "_toToken",
          "type": "address"
        },
        {
          "internalType": "uint256",
          "name": "_toAmount",
          "type": "uint256"
        },
        {
          "internalType": "address[]",
          "name": "_customPath",
          "type": "address[]"
        }
      ],
      "name": "swapExactOutETH",
      "outputs": [],
      "stateMutability": "payable",
      "type": "function"
    },
    {
      "inputs": [
        {
          "internalType": "address",
          "name": "_fromToken",
          "type": "address"
        },
        {
          "internalType": "address",
          "name": "_toToken",
          "type": "address"
        },
        {
          "internalType": "uint256",
          "name": "_toAmount",
          "type": "uint256"
        },
        {
          "internalType": "address[]",
          "name": "_customPath",
          "type": "address[]"
        }
      ],
      "name": "swapExactOutToken",
      "outputs": [],
      "stateMutability": "nonpayable",
      "type": "function"
    },
    {
      "inputs": [
        {
          "internalType": "address",
          "name": "newOwner",
          "type": "address"
        }
      ],
      "name": "transferOwnership",
      "outputs": [],
      "stateMutability": "nonpayable",
      "type": "function"
    },
    {
      "inputs": [
        {
          "internalType": "address",
          "name": "_erc20Addr",
          "type": "address"
        },
        {
          "internalType": "uint256",
          "name": "_amount",
          "type": "uint256"
        }
      ],
      "name": "withdraw",
      "outputs": [],
      "stateMutability": "nonpayable",
      "type": "function"
    },
    {
      "stateMutability": "payable",
      "type": "receive"
    }
  ],
  "transactionHash": "0xc519c1610131ab74d67f6497081612dbae38a7de4af788370024666f101f93d8",
  "args": [
    [
      "BCT",
      "NCT",
      "USDC",
      "WETH",
      "WMATIC"
    ],
    [
      "0x2F800Db0fdb5223b3C3f354886d907A671414A7F",
      "0xD838290e877E0188a4A44700463419ED96c16107",
      "0x2791Bca1f2de4661ED88A30C99A7a9449Aa84174",
      "0x7ceB23fD6bC0adD59E62ac25578270cFf1b9f619",
      "0x0d500B1d8E8eF31E21C99d1Db9A6444d3ADf1270"
    ],
    "USDC",
    "WMATIC"
  ],
  "numDeployments": 2,
  "solcInputHash": "0fdd9c50708e9150300ce73ac441252f",
  "bytecode": "0x6080604052606680546001600160a01b031990811673263fa1c180889b3a3f46330f32a4a23287e99fc91790915560678054909116731b02da8cb0d097eb8d57a175b88c7d8b479975061790553480156200005957600080fd5b50604051620036bf380380620036bf8339810160408190526200007c916200030e565b83516000905b808210156200013257848281518110620000ac57634e487b7160e01b600052603260045260246000fd5b60200260200101516065878481518110620000d757634e487b7160e01b600052603260045260246000fd5b6020026020010151604051620000ee91906200043e565b90815260405190819003602001902080546001600160a01b03929092166001600160a01b03199092169190911790556200012a600183620004b5565b915062000082565b8351620001479060699060208701906200016a565b5082516200015d90606a9060208601906200016a565b5050505050505062000560565b82805462000178906200050d565b90600052602060002090601f0160209004810192826200019c5760008555620001e7565b82601f10620001b757805160ff1916838001178555620001e7565b82800160010185558215620001e7579182015b82811115620001e7578251825591602001919060010190620001ca565b50620001f5929150620001f9565b5090565b5b80821115620001f55760008155600101620001fa565b600082601f83011262000221578081fd5b815160206200023a62000234836200048f565b6200045c565b80838252828201915082860187848660051b89010111156200025a578586fd5b855b858110156200028f5781516001600160a01b03811681146200027c578788fd5b845292840192908401906001016200025c565b5090979650505050505050565b600082601f830112620002ad578081fd5b81516001600160401b03811115620002c957620002c96200054a565b620002de601f8201601f19166020016200045c565b818152846020838601011115620002f3578283fd5b62000306826020830160208701620004da565b949350505050565b6000806000806080858703121562000324578384fd5b84516001600160401b03808211156200033b578586fd5b818701915087601f8301126200034f578586fd5b815160206200036262000234836200048f565b8083825282820191508286018c848660051b890101111562000382578a8bfd5b8a5b85811015620003c0578151878111156200039c578c8dfd5b620003ac8f87838c01016200029c565b855250928401929084019060010162000384565b5050918a0151919850909350505080821115620003db578485fd5b620003e98883890162000210565b94506040870151915080821115620003ff578384fd5b6200040d888389016200029c565b9350606087015191508082111562000423578283fd5b5062000432878288016200029c565b91505092959194509250565b6000825162000452818460208701620004da565b9190910192915050565b604051601f8201601f191681016001600160401b03811182821017156200048757620004876200054a565b604052919050565b60006001600160401b03821115620004ab57620004ab6200054a565b5060051b60200190565b60008219821115620004d557634e487b7160e01b81526011600452602481fd5b500190565b60005b83811015620004f7578181015183820152602001620004dd565b8381111562000507576000848401525b50505050565b600181811c908216806200052257607f821691505b602082108114156200054457634e487b7160e01b600052602260045260246000fd5b50919050565b634e487b7160e01b600052604160045260246000fd5b61314f80620005706000396000f3fe6080604052600436106101ae5760003560e01c8063b4762abd116100eb578063d26bce391161008f578063e882e37b11610061578063e882e37b146104ff578063eee63f2a1461051f578063f2fde38b1461053f578063f3fef3a31461055f57005b8063d26bce391461048c578063d3c76771146104ac578063e700c96c146104bf578063e7f67fb1146104df57005b8063b8aac809116100c8578063b8aac809146103ff578063c23f001f1461041f578063c55dae6314610457578063d08ec4751461046c57005b8063b4762abd146103ac578063b52653f4146103cc578063b859c66b146103df57005b8063715018a61161015257806382155e7e1161012f57806382155e7e146103395780638da5cb5b1461035957806397e5311c14610377578063a6e32e741461039957005b8063715018a6146102e457806375b8fd37146102f9578063772c26511461031957005b806338cf236a1161018b57806338cf236a1461022b57806346af60701461024b57806347e7ef24146102835780635d25309d146102a357005b80631661f818146101b75780631b20dded146101d757806325b1d6131461020a57005b366101b557005b005b3480156101c357600080fd5b506101b56101d2366004612a69565b61057f565b3480156101e357600080fd5b506101f76101f23660046128e1565b610876565b6040519081526020015b60405180910390f35b61021d610218366004612a13565b61090b565b604051610201929190612e66565b34801561023757600080fd5b506101b56102463660046128e1565b61093a565b34801561025757600080fd5b5060665461026b906001600160a01b031681565b6040516001600160a01b039091168152602001610201565b34801561028f57600080fd5b506101b561029e366004612997565b610c00565b3480156102af57600080fd5b5061026b6102be366004612c31565b80516020818301810180516065825292820191909301209152546001600160a01b031681565b3480156102f057600080fd5b506101b5610c78565b34801561030557600080fd5b5061021d6103143660046128e1565b610c8c565b34801561032557600080fd5b506101f7610334366004612cbf565b610cbd565b34801561034557600080fd5b5061021d610354366004612997565b610d65565b34801561036557600080fd5b506033546001600160a01b031661026b565b34801561038357600080fd5b5061038c610fd1565b6040516102019190612ec9565b6101b56103a7366004612a13565b61105f565b3480156103b857600080fd5b506101f76103c73660046129c2565b611412565b6101f76103da36600461294a565b6115c2565b3480156103eb57600080fd5b506101f76103fa3660046129c2565b6118a3565b34801561040b57600080fd5b5061021d61041a3660046129c2565b61192f565b34801561042b57600080fd5b506101f761043a3660046128a9565b606860209081526000928352604080842090915290825290205481565b34801561046357600080fd5b5061038c611965565b34801561047857600080fd5b5061021d610487366004612997565b611972565b34801561049857600080fd5b506101b56104a7366004612c63565b61199f565b61021d6104ba36600461294a565b6119eb565b3480156104cb57600080fd5b506101f76104da366004612a13565b611a1d565b3480156104eb57600080fd5b5060675461026b906001600160a01b031681565b34801561050b57600080fd5b506101b561051a36600461288d565b611aa5565b34801561052b57600080fd5b506101b561053a366004612c31565b611acf565b34801561054b57600080fd5b506101b561055a36600461288d565b611b07565b34801561056b57600080fd5b506101b561057a366004612997565b611b80565b8151806105c15760405162461bcd60e51b815260206004820152600b60248201526a417272617920656d70747960a81b60448201526064015b60405180910390fd5b815181146105e15760405162461bcd60e51b81526004016105b890612f57565b60005b818110156108705782818151811061060c57634e487b7160e01b600052603260045260246000fd5b602002602001015160001415610624576001016105e4565b82818151811061064457634e487b7160e01b600052603260045260246000fd5b602002602001015160686000336001600160a01b03166001600160a01b03168152602001908152602001600020600086848151811061069357634e487b7160e01b600052603260045260246000fd5b60200260200101516001600160a01b03166001600160a01b0316815260200190815260200160002054101561070a5760405162461bcd60e51b815260206004820152601960248201527f496e73756666696369656e742054434f322062616c616e63650000000000000060448201526064016105b8565b82818151811061072a57634e487b7160e01b600052603260045260246000fd5b602002602001015160686000336001600160a01b03166001600160a01b03168152602001908152602001600020600086848151811061077957634e487b7160e01b600052603260045260246000fd5b60200260200101516001600160a01b03166001600160a01b0316815260200190815260200160002060008282546107b0919061303f565b925050819055508381815181106107d757634e487b7160e01b600052603260045260246000fd5b60200260200101516001600160a01b0316633790cf5784838151811061080d57634e487b7160e01b600052603260045260246000fd5b60200260200101516040518263ffffffff1660e01b815260040161083391815260200190565b600060405180830381600087803b15801561084d57600080fd5b505af1158015610861573d6000803e3d6000fd5b505050508060010190506105e4565b50505050565b60008461088281611c3a565b61089e5760405162461bcd60e51b81526004016105b890612efc565b846108a881611dc2565b6108c45760405162461bcd60e51b81526004016105b890612f29565b60006108d288888888611e1e565b915050806000815181106108f657634e487b7160e01b600052603260045260246000fd5b60200260200101519350505050949350505050565b60608061091985858561105f565b6109238585610d65565b9092509050610932828261057f565b935093915050565b8361094481611c3a565b6109605760405162461bcd60e51b81526004016105b890612efc565b8361096a81611dc2565b6109865760405162461bcd60e51b81526004016105b890612f29565b60008061099588888888611e1e565b915091506000816000815181106109bc57634e487b7160e01b600052603260045260246000fd5b602090810291909101015190506109de6001600160a01b038a16333084611f5f565b60675460405163095ea7b360e01b81526001600160a01b03918216600482015260248101839052908a169063095ea7b390604401602060405180830381600087803b158015610a2c57600080fd5b505af1158015610a40573d6000803e3d6000fd5b505050506040513d601f19601f82011682018060405250810190610a649190612c11565b506000610a796067546001600160a01b031690565b6001600160a01b0316638803dbee89848730426040518663ffffffff1660e01b8152600401610aac959493929190612f98565b600060405180830381600087803b158015610ac657600080fd5b505af1158015610ada573d6000803e3d6000fd5b505050506040513d6000823e601f3d908101601f19168201604052610b029190810190612bdf565b90508181600081518110610b2657634e487b7160e01b600052603260045260246000fd5b60200260200101511015610bbc5760675460405163095ea7b360e01b81526001600160a01b03918216600482015260006024820152908b169063095ea7b390604401602060405180830381600087803b158015610b8257600080fd5b505af1158015610b96573d6000803e3d6000fd5b505050506040513d601f19601f82011682018060405250810190610bba9190612c11565b505b3360009081526068602090815260408083206001600160a01b038d168452909152812080548a9290610bef908490613027565b909155505050505050505050505050565b81610c0a81611dc2565b610c265760405162461bcd60e51b81526004016105b890612f29565b610c3b6001600160a01b038416333085611f5f565b3360009081526068602090815260408083206001600160a01b038716845290915281208054849290610c6e908490613027565b9091555050505050565b610c80611fca565b610c8a6000612024565b565b606080610c9b8686868661093a565b610ca58585610d65565b9092509050610cb4828261057f565b94509492505050565b600082610cc981611dc2565b610ce55760405162461bcd60e51b81526004016105b890612f29565b60006065606a604051610cf89190612d8d565b908152604051908190036020019020546001600160a01b031690506000610d2182888888612076565b9150508060018251610d33919061303f565b81518110610d5157634e487b7160e01b600052603260045260246000fd5b602002602001015193505050509392505050565b60608083610d7281611dc2565b610d8e5760405162461bcd60e51b81526004016105b890612f29565b3360009081526068602090815260408083206001600160a01b0389168452909152902054841115610e015760405162461bcd60e51b815260206004820152601c60248201527f496e73756666696369656e74204e43542f4243542062616c616e63650000000060448201526064016105b8565b604051634c02cad160e01b81526004810185905285906001600160a01b03821690634c02cad190602401600060405180830381600087803b158015610e4557600080fd5b505af1158015610e59573d6000803e3d6000fd5b505050506040513d6000823e601f3d908101601f19168201604052610e819190810190612b24565b3360009081526068602090815260408083206001600160a01b038c168452909152812080549397509195508792610eb990849061303f565b9091555050835160005b81811015610f8957848181518110610eeb57634e487b7160e01b600052603260045260246000fd5b602002602001015160686000336001600160a01b03166001600160a01b031681526020019081526020016000206000888481518110610f3a57634e487b7160e01b600052603260045260246000fd5b60200260200101516001600160a01b03166001600160a01b031681526020019081526020016000206000828254610f719190613027565b90915550819050610f81816130bd565b915050610ec3565b507f3d29f82a20ec733db9f357c4dc1ae0ee60c572cc4b877384aa4639e4d877b18833888787604051610fbf9493929190612e28565b60405180910390a15050509250929050565b606a8054610fde90613082565b80601f016020809104026020016040519081016040528092919081815260200182805461100a90613082565b80156110575780601f1061102c57610100808354040283529160200191611057565b820191906000526020600020905b81548152906001019060200180831161103a57829003601f168201915b505050505081565b8261106981611dc2565b6110855760405162461bcd60e51b81526004016105b890612f29565b81511580611094575081516003145b6110d65760405162461bcd60e51b8152602060048201526013602482015272092dcecc2d8d2c840c6eae6e8deda40e0c2e8d606b1b60448201526064016105b8565b8151600314156111d9576065606a6040516110f19190612d8d565b9081526040519081900360200190205482516001600160a01b0390911690839060009061112e57634e487b7160e01b600052603260045260246000fd5b60200260200101516001600160a01b03161461118c5760405162461bcd60e51b815260206004820152601f60248201527f546f6b656e2073686f756c64206e6f74206265207468652064656661756c740060448201526064016105b8565b6111bd826002815181106111b057634e487b7160e01b600052603260045260246000fd5b6020026020010151611dc2565b6111d95760405162461bcd60e51b81526004016105b890612f29565b60006065606a6040516111ec9190612d8d565b908152604051908190036020019020546001600160a01b0316905060006112148287866121ad565b9050600061122a6067546001600160a01b031690565b6001600160a01b031663fb3bdb4134888530426040518663ffffffff1660e01b815260040161125c9493929190612e94565b6000604051808303818588803b15801561127557600080fd5b505af1158015611289573d6000803e3d6000fd5b50505050506040513d6000823e601f3d908101601f191682016040526112b29190810190612bdf565b9050806000815181106112d557634e487b7160e01b600052603260045260246000fd5b60200260200101513411156113d15760008160008151811061130757634e487b7160e01b600052603260045260246000fd5b60200260200101513461131a919061303f565b60408051600080825260208201928390529293503391849161133b91612d71565b60006040518083038185875af1925050503d8060008114611378576040519150601f19603f3d011682016040523d82523d6000602084013e61137d565b606091505b50509050806113ce5760405162461bcd60e51b815260206004820152601b60248201527f4661696c656420746f2073656e6420737572706c7573206261636b000000000060448201526064016105b8565b50505b3360009081526068602090815260408083206001600160a01b038b16845290915281208054889290611404908490613027565b909155505050505050505050565b60008461141e81611c3a565b61143a5760405162461bcd60e51b81526004016105b890612efc565b8361144481611dc2565b6114605760405162461bcd60e51b81526004016105b890612f29565b600061146d8887876121ad565b80519091506114876001600160a01b038a1633308b611f5f565b6067546114a1906001600160a01b038b811691168a612396565b60006114b56067546001600160a01b031690565b6001600160a01b03166338ed17398a60008630426040518663ffffffff1660e01b81526004016114e9959493929190612f98565b600060405180830381600087803b15801561150357600080fd5b505af1158015611517573d6000803e3d6000fd5b505050506040513d6000823e601f3d908101601f1916820160405261153f9190810190612bdf565b905060008161154f60018561303f565b8151811061156d57634e487b7160e01b600052603260045260246000fd5b6020908102919091018101513360009081526068835260408082206001600160a01b038e1683529093529182208054919350839290916115ae908490613027565b90915550909b9a5050505050505050505050565b6000826115ce81611dc2565b6115ea5760405162461bcd60e51b81526004016105b890612f29565b825115806115f9575082516003145b61163b5760405162461bcd60e51b8152602060048201526013602482015272092dcecc2d8d2c840c6eae6e8deda40e0c2e8d606b1b60448201526064016105b8565b82516003141561173f576065606a6040516116569190612d8d565b9081526040519081900360200190205483516001600160a01b0390911690849060009061169357634e487b7160e01b600052603260045260246000fd5b60200260200101516001600160a01b0316146116ff5760405162461bcd60e51b815260206004820152602560248201527f546f6b656e2073686f756c64206e6f74206265207468652064656661756c74206044820152643a37b5b2b760d91b60648201526084016105b8565b611723836002815181106111b057634e487b7160e01b600052603260045260246000fd5b61173f5760405162461bcd60e51b81526004016105b890612f29565b600034905060006065606a6040516117579190612d8d565b908152604051908190036020019020546001600160a01b03169050600061177f8288886121ad565b805190915060006117986067546001600160a01b031690565b6001600160a01b0316637ff36ab58660008630426040518663ffffffff1660e01b81526004016117cb9493929190612e94565b6000604051808303818588803b1580156117e457600080fd5b505af11580156117f8573d6000803e3d6000fd5b50505050506040513d6000823e601f3d908101601f191682016040526118219190810190612bdf565b905060008161183160018561303f565b8151811061184f57634e487b7160e01b600052603260045260246000fd5b6020908102919091018101513360009081526068835260408082206001600160a01b038f168352909352918220805491935083929091611890908490613027565b90915550909a9950505050505050505050565b6000846118af81611c3a565b6118cb5760405162461bcd60e51b81526004016105b890612efc565b836118d581611dc2565b6118f15760405162461bcd60e51b81526004016105b890612f29565b60006118ff88888888612076565b9150508060018251611911919061303f565b815181106108f657634e487b7160e01b600052603260045260246000fd5b606080600061194087878787611412565b905061194c8582610d65565b909350915061195b838361057f565b5094509492505050565b60698054610fde90613082565b60608061197f8484610c00565b6119898484610d65565b9092509050611998828261057f565b9250929050565b6119a7611fca565b806065836040516119b89190612d71565b90815260405190819003602001902080546001600160a01b03929092166001600160a01b03199092169190911790555050565b60608060006119fa85856115c2565b9050611a068582610d65565b9093509150611a15838361057f565b509250929050565b600083611a2981611dc2565b611a455760405162461bcd60e51b81526004016105b890612f29565b60006065606a604051611a589190612d8d565b908152604051908190036020019020546001600160a01b031690506000611a8182888888611e1e565b91505080600081518110610d5157634e487b7160e01b600052603260045260246000fd5b611aad611fca565b606680546001600160a01b0319166001600160a01b0392909216919091179055565b611ad7611fca565b606581604051611ae79190612d71565b90815260405190819003602001902080546001600160a01b031916905550565b611b0f611fca565b6001600160a01b038116611b745760405162461bcd60e51b815260206004820152602660248201527f4f776e61626c653a206e6577206f776e657220697320746865207a65726f206160448201526564647265737360d01b60648201526084016105b8565b611b7d81612024565b50565b3360009081526068602090815260408083206001600160a01b0386168452909152902054811115611bea5760405162461bcd60e51b8152602060048201526014602482015273496e73756666696369656e742062616c616e636560601b60448201526064016105b8565b611bfe6001600160a01b03831633836124bf565b3360009081526068602090815260408083206001600160a01b038616845290915281208054839290611c3190849061303f565b90915550505050565b60006065604051611c5590635553444360e01b815260040190565b908152604051908190036020019020546001600160a01b0383811691161415611c8057506001919050565b604051630ae8aa8960e31b8152606590600401908152604051908190036020019020546001600160a01b0383811691161415611cbe57506001919050565b60405165574d4154494360d01b8152606590600601908152604051908190036020019020546001600160a01b0383811691161415611cfe57506001919050565b604051641b58d554d160da1b8152606590600501908152604051908190036020019020546001600160a01b0383811691161415611d3d57506001919050565b6040516318d554d160e21b8152606590600401908152604051908190036020019020546001600160a01b0383811691161415611d7b57506001919050565b6040516343454c4f60e01b81526065906004015b908152604051908190036020019020546001600160a01b0383811691161415611dba57506001919050565b506000919050565b60006065604051611ddc90621090d560ea1b815260030190565b908152604051908190036020019020546001600160a01b0383811691161415611e0757506001919050565b604051621390d560ea1b8152606590600301611d8f565b606080611e2c8686856121ad565b8051909250611e436067546001600160a01b031690565b6001600160a01b0316631f00ca7486856040518363ffffffff1660e01b8152600401611e70929190612f7f565b60006040518083038186803b158015611e8857600080fd5b505afa158015611e9c573d6000803e3d6000fd5b505050506040513d6000823e601f3d908101601f19168201604052611ec49190810190612bdf565b915081518114611ee65760405162461bcd60e51b81526004016105b890612f57565b81611ef260018361303f565b81518110611f1057634e487b7160e01b600052603260045260246000fd5b6020026020010151851461195b5760405162461bcd60e51b815260206004820152601660248201527509eeae8e0eae840c2dadeeadce840dad2e6dac2e8c6d60531b60448201526064016105b8565b6040516001600160a01b03808516602483015283166044820152606481018290526108709085906323b872dd60e01b906084015b60408051601f198184030181529190526020810180516001600160e01b03166001600160e01b0319909316929092179091526124ef565b6033546001600160a01b03163314610c8a5760405162461bcd60e51b815260206004820181905260248201527f4f776e61626c653a2063616c6c6572206973206e6f7420746865206f776e657260448201526064016105b8565b603380546001600160a01b038381166001600160a01b0319831681179093556040519116919082907f8be0079c531659141344cd1fd0a4f28419497f9722a3daafe3b4186f6b6457e090600090a35050565b6060806120848685856121ad565b805190925061209b6067546001600160a01b031690565b6001600160a01b031663d06ca61f87856040518363ffffffff1660e01b81526004016120c8929190612f7f565b60006040518083038186803b1580156120e057600080fd5b505afa1580156120f4573d6000803e3d6000fd5b505050506040513d6000823e601f3d908101601f1916820160405261211c9190810190612bdf565b91508151811461213e5760405162461bcd60e51b81526004016105b890612f57565b8160008151811061215f57634e487b7160e01b600052603260045260246000fd5b6020026020010151861461195b5760405162461bcd60e51b8152602060048201526015602482015274092dce0eae840c2dadeeadce840dad2e6dac2e8c6d605b1b60448201526064016105b8565b60606001825111156121c057508061238f565b606560696040516121d19190612d8d565b908152604051908190036020019020546001600160a01b038581169116141561229857604080516002808252606082018352600092602083019080368337019050509050848160008151811061223757634e487b7160e01b600052603260045260246000fd5b60200260200101906001600160a01b031690816001600160a01b031681525050838160018151811061227957634e487b7160e01b600052603260045260246000fd5b6001600160a01b0390921660209283029190910190910152905061238f565b604080516003808252608082019092526000916020820160608036833701905050905084816000815181106122dd57634e487b7160e01b600052603260045260246000fd5b60200260200101906001600160a01b031690816001600160a01b0316815250506065606960405161230e9190612d8d565b9081526040519081900360200190205481516001600160a01b03909116908290600190811061234d57634e487b7160e01b600052603260045260246000fd5b60200260200101906001600160a01b031690816001600160a01b031681525050838160028151811061227957634e487b7160e01b600052603260045260246000fd5b9392505050565b80158061241f5750604051636eb1769f60e11b81523060048201526001600160a01b03838116602483015284169063dd62ed3e9060440160206040518083038186803b1580156123e557600080fd5b505afa1580156123f9573d6000803e3d6000fd5b505050506040513d601f19601f8201168201806040525081019061241d9190612ca7565b155b61248a5760405162461bcd60e51b815260206004820152603660248201527f5361666545524332303a20617070726f76652066726f6d206e6f6e2d7a65726f60448201527520746f206e6f6e2d7a65726f20616c6c6f77616e636560501b60648201526084016105b8565b6040516001600160a01b0383166024820152604481018290526124ba90849063095ea7b360e01b90606401611f93565b505050565b6040516001600160a01b0383166024820152604481018290526124ba90849063a9059cbb60e01b90606401611f93565b6000612544826040518060400160405280602081526020017f5361666545524332303a206c6f772d6c6576656c2063616c6c206661696c6564815250856001600160a01b03166125c19092919063ffffffff16565b8051909150156124ba57808060200190518101906125629190612c11565b6124ba5760405162461bcd60e51b815260206004820152602a60248201527f5361666545524332303a204552433230206f7065726174696f6e20646964206e6044820152691bdd081cdd58d8d9595960b21b60648201526084016105b8565b60606125d084846000856125d8565b949350505050565b6060824710156126395760405162461bcd60e51b815260206004820152602660248201527f416464726573733a20696e73756666696369656e742062616c616e636520666f6044820152651c8818d85b1b60d21b60648201526084016105b8565b600080866001600160a01b031685876040516126559190612d71565b60006040518083038185875af1925050503d8060008114612692576040519150601f19603f3d011682016040523d82523d6000602084013e612697565b606091505b50915091506126a8878383876126b3565b979650505050505050565b6060831561271f578251612718576001600160a01b0385163b6127185760405162461bcd60e51b815260206004820152601d60248201527f416464726573733a2063616c6c20746f206e6f6e2d636f6e747261637400000060448201526064016105b8565b50816125d0565b6125d083838151156127345781518083602001fd5b8060405162461bcd60e51b81526004016105b89190612ec9565b600082601f83011261275e578081fd5b8135602061277361276e83613004565b612fd4565b80838252828201915082860187848660051b8901011115612792578586fd5b855b858110156127b95781356127a781613104565b84529284019290840190600101612794565b5090979650505050505050565b600082601f8301126127d6578081fd5b815160206127e661276e83613004565b80838252828201915082860187848660051b8901011115612805578586fd5b855b858110156127b957815184529284019290840190600101612807565b600082601f830112612833578081fd5b81356001600160401b0381111561284c5761284c6130ee565b61285f601f8201601f1916602001612fd4565b818152846020838601011115612873578283fd5b816020850160208301379081016020019190915292915050565b60006020828403121561289e578081fd5b813561238f81613104565b600080604083850312156128bb578081fd5b82356128c681613104565b915060208301356128d681613104565b809150509250929050565b600080600080608085870312156128f6578182fd5b843561290181613104565b9350602085013561291181613104565b92506040850135915060608501356001600160401b03811115612932578182fd5b61293e8782880161274e565b91505092959194509250565b6000806040838503121561295c578182fd5b823561296781613104565b915060208301356001600160401b03811115612981578182fd5b61298d8582860161274e565b9150509250929050565b600080604083850312156129a9578182fd5b82356129b481613104565b946020939093013593505050565b600080600080608085870312156129d7578384fd5b84356129e281613104565b93506020850135925060408501356129f981613104565b915060608501356001600160401b03811115612932578182fd5b600080600060608486031215612a27578081fd5b8335612a3281613104565b92506020840135915060408401356001600160401b03811115612a53578182fd5b612a5f8682870161274e565b9150509250925092565b60008060408385031215612a7b578182fd5b82356001600160401b0380821115612a91578384fd5b612a9d8683870161274e565b9350602091508185013581811115612ab3578384fd5b85019050601f81018613612ac5578283fd5b8035612ad361276e82613004565b80828252848201915084840189868560051b8701011115612af2578687fd5b8694505b83851015612b14578035835260019490940193918501918501612af6565b5080955050505050509250929050565b60008060408385031215612b36578182fd5b82516001600160401b0380821115612b4c578384fd5b818501915085601f830112612b5f578384fd5b81516020612b6f61276e83613004565b8083825282820191508286018a848660051b8901011115612b8e578889fd5b8896505b84871015612bb9578051612ba581613104565b835260019690960195918301918301612b92565b5091880151919650909350505080821115612bd2578283fd5b5061298d858286016127c6565b600060208284031215612bf0578081fd5b81516001600160401b03811115612c05578182fd5b6125d0848285016127c6565b600060208284031215612c22578081fd5b8151801515811461238f578182fd5b600060208284031215612c42578081fd5b81356001600160401b03811115612c57578182fd5b6125d084828501612823565b60008060408385031215612c75578182fd5b82356001600160401b03811115612c8a578283fd5b612c9685828601612823565b92505060208301356128d681613104565b600060208284031215612cb8578081fd5b5051919050565b600080600060608486031215612cd3578081fd5b833592506020840135612ce581613104565b915060408401356001600160401b03811115612a53578182fd5b6000815180845260208085019450808401835b83811015612d375781516001600160a01b031687529582019590820190600101612d12565b509495945050505050565b6000815180845260208085019450808401835b83811015612d3757815187529582019590820190600101612d55565b60008251612d83818460208701613056565b9190910192915050565b600080835482600182811c915080831680612da957607f831692505b6020808410821415612dc957634e487b7160e01b87526022600452602487fd5b818015612ddd5760018114612dee57612e1a565b60ff19861689528489019650612e1a565b60008a815260209020885b86811015612e125781548b820152908501908301612df9565b505084890196505b509498975050505050505050565b6001600160a01b03858116825284166020820152608060408201819052600090612e5490830185612cff565b82810360608401526126a88185612d42565b604081526000612e796040830185612cff565b8281036020840152612e8b8185612d42565b95945050505050565b848152608060208201526000612ead6080830186612cff565b6001600160a01b03949094166040830152506060015292915050565b6020815260008251806020840152612ee8816040850160208701613056565b601f01601f19169190910160400192915050565b602080825260139082015272546f6b656e206e6f7420737761707061626c6560681b604082015260600190565b602080825260149082015273546f6b656e206e6f742072656465656d61626c6560601b604082015260600190565b6020808252600e908201526d105c9c985e5cc81d5b995c5d585b60921b604082015260600190565b8281526040602082015260006125d06040830184612cff565b85815284602082015260a060408201526000612fb760a0830186612cff565b6001600160a01b0394909416606083015250608001529392505050565b604051601f8201601f191681016001600160401b0381118282101715612ffc57612ffc6130ee565b604052919050565b60006001600160401b0382111561301d5761301d6130ee565b5060051b60200190565b6000821982111561303a5761303a6130d8565b500190565b600082821015613051576130516130d8565b500390565b60005b83811015613071578181015183820152602001613059565b838111156108705750506000910152565b600181811c9082168061309657607f821691505b602082108114156130b757634e487b7160e01b600052602260045260246000fd5b50919050565b60006000198214156130d1576130d16130d8565b5060010190565b634e487b7160e01b600052601160045260246000fd5b634e487b7160e01b600052604160045260246000fd5b6001600160a01b0381168114611b7d57600080fdfea2646970667358221220b862fa7014155246ad9ac1f2d96cc5ccd8e40dd1f4ffa95da014b39f9644fb8664736f6c63430008040033",
  "devdoc": {
    "events": {
      "Redeemed(address,address,address[],uint256[])": {
        "params": {
          "amounts": "An array of the amounts of each TCO2 that were redeemed",
          "poolToken": "The address of the Toucan pool token used in the redemption, for example, NCT or BCT",
          "tco2s": "An array of the TCO2 addresses that were redeemed",
          "who": "The sender of the transaction"
        }
      }
    },
    "kind": "dev",
    "methods": {
      "autoOffsetExactInETH(address,address[])": {
        "params": {
          "_poolToken": "The address of the Toucan pool token that the user wants to use, for example, NCT or BCT."
        },
        "returns": {
          "amounts": "An array of the amounts of each TCO2 that were redeemed",
          "tco2s": "An array of the TCO2 addresses that were redeemed"
        }
      },
      "autoOffsetExactInToken(address,uint256,address,address[])": {
        "details": "When automatically redeeming pool tokens for the lowest quality TCO2s there are no fees and you receive exactly 1 TCO2 token for 1 pool token.",
        "params": {
          "_amountToSwap": "The amount of ERC20 token to swap into Toucan pool token. Full amount will be used for offsetting.",
          "_fromToken": "The address of the ERC20 token that the user sends (must be one of USDC, WETH, WMATIC)",
          "_poolToken": "The address of the Toucan pool token that the user wants to use, for example, NCT or BCT"
        },
        "returns": {
          "amounts": "An array of the amounts of each TCO2 that were redeemed",
          "tco2s": "An array of the TCO2 addresses that were redeemed"
        }
      },
      "autoOffsetExactOutETH(address,uint256,address[])": {
        "details": "If the user sends much native token e.g. CELO, the leftover amount will be sent back to the user.",
        "params": {
          "_amountToOffset": "The amount of TCO2 to offset.",
          "_poolToken": "The address of the Toucan pool token that the user wants to use, for example, NCT or BCT."
        },
        "returns": {
          "amounts": "An array of the amounts of each TCO2 that were redeemed",
          "tco2s": "An array of the TCO2 addresses that were redeemed"
        }
      },
      "autoOffsetExactOutToken(address,address,uint256,address[])": {
        "details": "When automatically redeeming pool tokens for the lowest quality TCO2s there are no fees and you receive exactly 1 TCO2 token for 1 pool token.",
        "params": {
          "_amountToOffset": "The amount of TCO2 to offset",
          "_depositedToken": "The address of the ERC20 token that the user sends (must be one of USDC, WETH, WMATIC)",
          "_poolToken": "The address of the Toucan pool token that the user wants to use, for example, NCT or BCT"
        },
        "returns": {
          "amounts": "An array of the amounts of each TCO2 that were redeemed",
          "tco2s": "An array of the TCO2 addresses that were redeemed"
        }
      },
      "autoOffsetPoolToken(address,uint256)": {
        "params": {
          "_amountToOffset": "The amount of TCO2 to offset.",
          "_poolToken": "The address of the Toucan pool token that the user wants to use, for example, NCT or BCT."
        },
        "returns": {
          "amounts": "An array of the amounts of each TCO2 that were redeemed",
          "tco2s": "An array of the TCO2 addresses that were redeemed"
        }
      },
      "autoRedeem(address,uint256)": {
        "details": "Needs to be approved on the client side",
        "params": {
          "_amount": "Amount to redeem",
          "_fromToken": "Could be the address of NCT or BCT"
        },
        "returns": {
          "amounts": "An array of the amounts of each TCO2 that were redeemed",
          "tco2s": "An array of the TCO2 addresses that were redeemed"
        }
      },
      "autoRetire(address[],uint256[])": {
        "params": {
          "_amounts": "The amounts to retire from each of the corresponding TCO2 addresses",
          "_tco2s": "The addresses of the TCO2s to retire"
        }
      },
      "calculateExpectedPoolTokenForETH(uint256,address,address[])": {
        "params": {
          "_fromETHAmount": "The amount of native token e.g. CELO to swap",
          "_toToken": "The address of the pool token to swap for, for example, NCT or BCT"
        },
        "returns": {
          "_0": "The expected amount of Pool token that can be acquired"
        }
      },
      "calculateExpectedPoolTokenForToken(address,uint256,address,address[])": {
        "params": {
          "_fromAmount": "The amount of ERC20 token to swap",
          "_fromToken": "The address of the ERC20 token used for the swap",
          "_toToken": "The address of the pool token to swap for, for example, NCT or BCT"
        },
        "returns": {
          "_0": "The expected amount of Pool token that can be acquired"
        }
      },
      "calculateNeededETHAmount(address,uint256,address[])": {
        "params": {
          "_toAmount": "The desired amount of pool token to receive",
          "_toToken": "The address of the pool token to swap for, for example, NCT or BCT"
        },
        "returns": {
          "_0": "amounts The amount of native token e.g. CELO required in order to swap for the specified amount of the pool token"
        }
      },
      "calculateNeededTokenAmount(address,address,uint256,address[])": {
        "params": {
          "_fromToken": "The address of the ERC20 token used for the swap",
          "_toAmount": "The desired amount of pool token to receive",
          "_toToken": "The address of the pool token to swap for, for example, NCT or BCT"
        },
        "returns": {
          "_0": "amountsIn The amount of the ERC20 token required in order to swap for the specified amount of the pool token"
        }
      },
      "constructor": {
        "details": "See `isEligible()` for a list of tokens that can be used in the contract. These can be modified after deployment by the contract owner using `setEligibleTokenAddress()` and `deleteEligibleTokenAddress()`.",
        "params": {
          "_baseERC20": "Symbol of ERC20 token to get the current amount to swap to the provided token symbols.",
          "_baseToken": "Symbol of the token the DEX uses to change to pool tokens e.g., NCTs",
          "_eligibleTokenAddresses": "A list of token addresses corresponding",
          "_eligibleTokenSymbols": "A list of token symbols."
        }
      },
      "deleteEligibleTokenAddress(string)": {
        "params": {
          "_tokenSymbol": "The symbol of the token to remove"
        }
      },
      "deposit(address,uint256)": {
        "details": "Needs to be approved"
      },
      "owner()": {
        "details": "Returns the address of the current owner."
      },
      "renounceOwnership()": {
        "details": "Leaves the contract without owner. It will not be possible to call `onlyOwner` functions anymore. Can only be called by the current owner. NOTE: Renouncing ownership will leave the contract without an owner, thereby removing any functionality that is only available to the owner."
      },
      "setEligibleTokenAddress(string,address)": {
        "params": {
          "_address": "The address of the token to add",
          "_tokenSymbol": "The symbol of the token to add"
        }
      },
      "setToucanContractRegistry(address)": {
        "params": {
          "_address": "The address of the Toucan contract registry to use"
        }
      },
      "swapExactInETH(address,address[])": {
        "params": {
          "_toToken": "Token to swap for (will be held within contract)"
        },
        "returns": {
          "_0": "Resulting amount of Toucan pool token that got acquired for the swapped native token e.g. CELO."
        }
      },
      "swapExactInToken(address,uint256,address,address[])": {
        "details": "Needs to be approved on the client side.",
        "params": {
          "_fromAmount": "The amount of ERC20 token to swap",
          "_fromToken": "The ERC20 token to deposit and swap",
          "_toToken": "The Toucan token to swap for (will be held within contract)"
        },
        "returns": {
          "_0": "Resulting amount of Toucan pool token that got acquired for the swapped ERC20 tokens."
        }
      },
      "swapExactOutETH(address,uint256,address[])": {
        "params": {
          "_toAmount": "Amount of NCT / BCT wanted",
          "_toToken": "Token to swap for (will be held within contract)"
        }
      },
      "swapExactOutToken(address,address,uint256,address[])": {
        "details": "Needs to be approved on the client side",
        "params": {
          "_fromToken": "The ERC20 oken to deposit and swap",
          "_toAmount": "The required amount of the Toucan pool token (NCT/BCT)",
          "_toToken": "The token to swap for (will be held within contract)"
        }
      },
      "transferOwnership(address)": {
        "details": "Transfers ownership of the contract to a new account (`newOwner`). Can only be called by the current owner."
      }
    },
    "title": "Toucan Protocol Offset Helpers",
    "version": 1
  },
  "userdoc": {
    "events": {
      "Redeemed(address,address,address[],uint256[])": {
        "notice": "Emitted upon successful redemption of TCO2 tokens from a Toucan pool token such as BCT or NCT."
      }
    },
    "kind": "user",
    "methods": {
      "autoOffsetExactInETH(address,address[])": {
        "notice": "Retire carbon credits using the lowest quality (oldest) TCO2 tokens available from the specified Toucan token pool by sending a native token e.g. CELO. All provided native token e.g. CELO is consumed for offsetting. This function: 1. Swaps the native token e.g. CELO sent to the contract for the specified pool token. 2. Redeems the pool token for the poorest quality TCO2 tokens available. 3. Retires the TCO2 tokens."
      },
      "autoOffsetExactInToken(address,uint256,address,address[])": {
        "notice": "Retire carbon credits using the lowest quality (oldest) TCO2 tokens available from the specified Toucan token pool by sending ERC20 tokens (USDC, WETH, WMATIC). All provided token is consumed for offsetting. This function: 1. Swaps the ERC20 token sent to the contract for the specified pool token. 2. Redeems the pool token for the poorest quality TCO2 tokens available. 3. Retires the TCO2 tokens. Note: The client must approve the ERC20 token that is sent to the contract."
      },
      "autoOffsetExactOutETH(address,uint256,address[])": {
        "notice": "Retire a specified amount of  carbon credits using the lowest quality (oldest) TCO2 tokens available from the specified Toucan token pool by sending a native token e.g. CELO. Use `calculateNeededETHAmount()` first in order to find out how much of the native token e.g. CELO is required to retire the specified quantity of TCO2. This function: 1. Swaps the native token e.g. CELO sent to the contract for the specified pool token. 2. Redeems the pool token for the poorest quality TCO2 tokens available. 3. Retires the TCO2 tokens."
      },
      "autoOffsetExactOutToken(address,address,uint256,address[])": {
        "notice": "Retire carbon credits using the lowest quality (oldest) TCO2 tokens available from the specified Toucan token pool by sending ERC20 tokens (USDC, WETH, WMATIC). Use `calculateNeededTokenAmount` first in order to find out how much of the ERC20 token is required to retire the specified quantity of TCO2. This function: 1. Swaps the ERC20 token sent to the contract for the specified pool token. 2. Redeems the pool token for the poorest quality TCO2 tokens available. 3. Retires the TCO2 tokens. Note: The client must approve the ERC20 token that is sent to the contract."
      },
      "autoOffsetPoolToken(address,uint256)": {
        "notice": "Retire carbon credits using the lowest quality (oldest) TCO2 tokens available by sending Toucan pool tokens, for example, BCT or NCT. This function: 1. Redeems the pool token for the poorest quality TCO2 tokens available. 2. Retires the TCO2 tokens. Note: The client must approve the pool token that is sent."
      },
      "autoRedeem(address,uint256)": {
        "notice": "Redeems the specified amount of NCT / BCT for TCO2."
      },
      "autoRetire(address[],uint256[])": {
        "notice": "Retire the specified TCO2 tokens."
      },
      "calculateExpectedPoolTokenForETH(uint256,address,address[])": {
        "notice": "Calculates the expected amount of Toucan Pool token that can be acquired by swapping the provided amount of native token e.g. CELO."
      },
      "calculateExpectedPoolTokenForToken(address,uint256,address,address[])": {
        "notice": "Calculates the expected amount of Toucan Pool token that can be acquired by swapping the provided amount of ERC20 token."
      },
      "calculateNeededETHAmount(address,uint256,address[])": {
        "notice": "Return how much native token e.g. CELO is required in order to swap for the desired amount of a Toucan pool token, for example, BCT or NCT."
      },
      "calculateNeededTokenAmount(address,address,uint256,address[])": {
        "notice": "Return how much of the specified ERC20 token is required in order to swap for the desired amount of a Toucan pool token, for example, BCT or NCT."
      },
      "constructor": {
        "notice": "Contract constructor. Should specify arrays of ERC20 symbols and addresses that can used by the contract."
      },
      "deleteEligibleTokenAddress(string)": {
        "notice": "Delete eligible tokens stored in the contract."
      },
      "deposit(address,uint256)": {
        "notice": "Allow users to deposit BCT / NCT."
      },
      "setEligibleTokenAddress(string,address)": {
        "notice": "Change or add eligible tokens and their addresses."
      },
      "setToucanContractRegistry(address)": {
        "notice": "Change the TCO2 contracts registry."
      },
      "swapExactInETH(address,address[])": {
        "notice": "Swap the native token e.g. CELO for Toucan pool tokens (BCT/NCT) on SushiSwap. All provided native token e.g. CELO will be swapped."
      },
      "swapExactInToken(address,uint256,address,address[])": {
        "notice": "Swap eligible ERC20 tokens for Toucan pool tokens (BCT/NCT) on SushiSwap. All provided ERC20 tokens will be swapped."
      },
      "swapExactOutETH(address,uint256,address[])": {
        "notice": "Swap the native token e.g. CELO for Toucan pool tokens (BCT/NCT) on SushiSwap. Remaining native token e.g. CELO that was not consumed by the swap is returned."
      },
      "swapExactOutToken(address,address,uint256,address[])": {
        "notice": "Swap eligible ERC20 tokens for Toucan pool tokens (BCT/NCT) on SushiSwap"
      },
      "withdraw(address,uint256)": {
        "notice": "Allow users to withdraw tokens they have deposited."
      }
    },
    "notice": "Helper functions that simplify the carbon offsetting (retirement) process. Retiring carbon tokens requires multiple steps and interactions with Toucan Protocol's main contracts: 1. Obtain a Toucan pool token such as BCT or NCT (by performing a token    swap). 2. Redeem the pool token for a TCO2 token. 3. Retire the TCO2 token. These steps are combined in each of the following \"auto offset\" methods implemented in `OffsetHelper` to allow a retirement within one transaction: - `autoOffsetPoolToken()` if the user already owns a Toucan pool   token such as BCT or NCT, - `autoOffsetExactOutETH()` if the user would like to perform a retirement   using the native token e.g. CELO, specifying the exact amount of TCO2s to retire, - `autoOffsetExactInETH()` if the user would like to perform a retirement   using the native token e.g. CELO, swapping all sent native tokens into TCO2s, - `autoOffsetExactOutToken()` if the user would like to perform a retirement   using an ERC20 token (USDC, WETH or WMATIC), specifying the exact amount   of TCO2s to retire, - `autoOffsetExactInToken()` if the user would like to perform a retirement   using an ERC20 token (USDC, WETH or WMATIC), specifying the exact amount   of token to swap into TCO2s. In these methods, \"auto\" refers to the fact that these methods use `autoRedeem()` in order to automatically choose a TCO2 token corresponding to the oldest tokenized carbon project in the specfified token pool. There are no fees incurred by the user when using `autoRedeem()`, i.e., the user receives 1 TCO2 token for each pool token (BCT/NCT) redeemed. There are two `view` helper functions `calculateNeededETHAmount()` and `calculateNeededTokenAmount()` that should be called before using `autoOffsetExactOutETH()` and `autoOffsetExactOutToken()`, to determine how much native token e.g. CELO, respectively how much of the ERC20 token must be sent to the `OffsetHelper` contract in order to retire the specified amount of carbon. The two `view` helper functions `calculateExpectedPoolTokenForETH()` and `calculateExpectedPoolTokenForToken()` can be used to calculate the expected amount of TCO2s that will be offset using functions `autoOffsetExactInETH()` and `autoOffsetExactInToken()`.",
    "version": 1
  },
  "storageLayout": {
    "storage": [
      {
        "astId": 138,
        "contract": "contracts/OffsetHelper.sol:OffsetHelper",
        "label": "_initialized",
        "offset": 0,
        "slot": "0",
        "type": "t_uint8"
      },
      {
        "astId": 141,
        "contract": "contracts/OffsetHelper.sol:OffsetHelper",
        "label": "_initializing",
        "offset": 1,
        "slot": "0",
        "type": "t_bool"
      },
      {
        "astId": 703,
        "contract": "contracts/OffsetHelper.sol:OffsetHelper",
        "label": "__gap",
        "offset": 0,
        "slot": "1",
        "type": "t_array(t_uint256)50_storage"
      },
      {
        "astId": 10,
        "contract": "contracts/OffsetHelper.sol:OffsetHelper",
        "label": "_owner",
        "offset": 0,
        "slot": "51",
        "type": "t_address"
      },
      {
        "astId": 130,
        "contract": "contracts/OffsetHelper.sol:OffsetHelper",
        "label": "__gap",
        "offset": 0,
        "slot": "52",
        "type": "t_array(t_uint256)49_storage"
      },
      {
        "astId": 3475,
        "contract": "contracts/OffsetHelper.sol:OffsetHelper",
        "label": "eligibleTokenAddresses",
        "offset": 0,
        "slot": "101",
        "type": "t_mapping(t_string_memory_ptr,t_address)"
      },
      {
        "astId": 3478,
        "contract": "contracts/OffsetHelper.sol:OffsetHelper",
        "label": "contractRegistryAddress",
        "offset": 0,
        "slot": "102",
        "type": "t_address"
      },
      {
        "astId": 3481,
        "contract": "contracts/OffsetHelper.sol:OffsetHelper",
        "label": "dexRouterAddress",
        "offset": 0,
        "slot": "103",
        "type": "t_address"
      },
      {
        "astId": 3487,
        "contract": "contracts/OffsetHelper.sol:OffsetHelper",
        "label": "balances",
        "offset": 0,
        "slot": "104",
        "type": "t_mapping(t_address,t_mapping(t_address,t_uint256))"
      },
      {
        "astId": 3489,
        "contract": "contracts/OffsetHelper.sol:OffsetHelper",
        "label": "baseToken",
        "offset": 0,
        "slot": "105",
        "type": "t_string_storage"
      },
      {
        "astId": 3491,
        "contract": "contracts/OffsetHelper.sol:OffsetHelper",
        "label": "baseERC20",
        "offset": 0,
        "slot": "106",
        "type": "t_string_storage"
      }
    ],
    "types": {
      "t_address": {
        "encoding": "inplace",
        "label": "address",
        "numberOfBytes": "20"
      },
      "t_array(t_uint256)49_storage": {
        "base": "t_uint256",
        "encoding": "inplace",
        "label": "uint256[49]",
        "numberOfBytes": "1568"
      },
      "t_array(t_uint256)50_storage": {
        "base": "t_uint256",
        "encoding": "inplace",
        "label": "uint256[50]",
        "numberOfBytes": "1600"
      },
      "t_bool": {
        "encoding": "inplace",
        "label": "bool",
        "numberOfBytes": "1"
      },
      "t_mapping(t_address,t_mapping(t_address,t_uint256))": {
        "encoding": "mapping",
        "key": "t_address",
        "label": "mapping(address => mapping(address => uint256))",
        "numberOfBytes": "32",
        "value": "t_mapping(t_address,t_uint256)"
      },
      "t_mapping(t_address,t_uint256)": {
        "encoding": "mapping",
        "key": "t_address",
        "label": "mapping(address => uint256)",
        "numberOfBytes": "32",
        "value": "t_uint256"
      },
      "t_mapping(t_string_memory_ptr,t_address)": {
        "encoding": "mapping",
        "key": "t_string_memory_ptr",
        "label": "mapping(string => address)",
        "numberOfBytes": "32",
        "value": "t_address"
      },
      "t_string_memory_ptr": {
        "encoding": "bytes",
        "label": "string",
        "numberOfBytes": "32"
      },
      "t_string_storage": {
        "encoding": "bytes",
        "label": "string",
        "numberOfBytes": "32"
      },
      "t_uint256": {
        "encoding": "inplace",
        "label": "uint256",
        "numberOfBytes": "32"
      },
      "t_uint8": {
        "encoding": "inplace",
        "label": "uint8",
        "numberOfBytes": "1"
      }
    }
  }
}