{
  "address": "0x49d331684Bd2311Ef2F214b6Fd17c75dfC30A54C",
  "abi": [
    {
      "inputs": [
        {
          "internalType": "address[]",
          "name": "_poolAddresses",
          "type": "address[]"
        },
        {
          "internalType": "string[]",
          "name": "_tokenSymbolsForPaths",
          "type": "string[]"
        },
        {
          "internalType": "address[][]",
          "name": "_paths",
          "type": "address[][]"
        },
        {
          "internalType": "address",
          "name": "_dexRouterAddress",
          "type": "address"
        }
      ],
      "stateMutability": "nonpayable",
      "type": "constructor"
    },
    {
      "anonymous": false,
      "inputs": [
        {
          "indexed": true,
          "internalType": "address",
          "name": "previousOwner",
          "type": "address"
        },
        {
          "indexed": true,
          "internalType": "address",
          "name": "newOwner",
          "type": "address"
        }
      ],
      "name": "OwnershipTransferred",
      "type": "event"
    },
    {
      "anonymous": false,
      "inputs": [
        {
          "indexed": false,
          "internalType": "address",
          "name": "sender",
          "type": "address"
        },
        {
          "indexed": false,
          "internalType": "address",
          "name": "poolToken",
          "type": "address"
        },
        {
          "indexed": false,
          "internalType": "address[]",
          "name": "tco2s",
          "type": "address[]"
        },
        {
          "indexed": false,
          "internalType": "uint256[]",
          "name": "amounts",
          "type": "uint256[]"
        }
      ],
      "name": "Redeemed",
      "type": "event"
    },
    {
      "inputs": [
        {
          "internalType": "string",
          "name": "_tokenSymbol",
          "type": "string"
        },
        {
          "internalType": "address[]",
          "name": "_path",
          "type": "address[]"
        }
      ],
      "name": "addPath",
      "outputs": [],
      "stateMutability": "nonpayable",
      "type": "function"
    },
    {
      "inputs": [
        {
          "internalType": "address",
          "name": "_poolToken",
          "type": "address"
        }
      ],
      "name": "addPoolToken",
      "outputs": [],
      "stateMutability": "nonpayable",
      "type": "function"
    },
    {
      "inputs": [
        {
          "internalType": "address",
          "name": "_poolToken",
          "type": "address"
        }
      ],
      "name": "autoOffsetExactInETH",
      "outputs": [
        {
          "internalType": "address[]",
          "name": "tco2s",
          "type": "address[]"
        },
        {
          "internalType": "uint256[]",
          "name": "amounts",
          "type": "uint256[]"
        }
      ],
      "stateMutability": "payable",
      "type": "function"
    },
    {
      "inputs": [
        {
          "internalType": "address",
          "name": "_fromToken",
          "type": "address"
        },
        {
          "internalType": "address",
          "name": "_poolToken",
          "type": "address"
        },
        {
          "internalType": "uint256",
          "name": "_amountToSwap",
          "type": "uint256"
        }
      ],
      "name": "autoOffsetExactInToken",
      "outputs": [
        {
          "internalType": "address[]",
          "name": "tco2s",
          "type": "address[]"
        },
        {
          "internalType": "uint256[]",
          "name": "amounts",
          "type": "uint256[]"
        }
      ],
      "stateMutability": "nonpayable",
      "type": "function"
    },
    {
      "inputs": [
        {
          "internalType": "address",
          "name": "_poolToken",
          "type": "address"
        },
        {
          "internalType": "uint256",
          "name": "_amountToOffset",
          "type": "uint256"
        }
      ],
      "name": "autoOffsetExactOutETH",
      "outputs": [
        {
          "internalType": "address[]",
          "name": "tco2s",
          "type": "address[]"
        },
        {
          "internalType": "uint256[]",
          "name": "amounts",
          "type": "uint256[]"
        }
      ],
      "stateMutability": "payable",
      "type": "function"
    },
    {
      "inputs": [
        {
          "internalType": "address",
          "name": "_fromToken",
          "type": "address"
        },
        {
          "internalType": "address",
          "name": "_poolToken",
          "type": "address"
        },
        {
          "internalType": "uint256",
          "name": "_amountToOffset",
          "type": "uint256"
        }
      ],
      "name": "autoOffsetExactOutToken",
      "outputs": [
        {
          "internalType": "address[]",
          "name": "tco2s",
          "type": "address[]"
        },
        {
          "internalType": "uint256[]",
          "name": "amounts",
          "type": "uint256[]"
        }
      ],
      "stateMutability": "nonpayable",
      "type": "function"
    },
    {
      "inputs": [
        {
          "internalType": "address",
          "name": "_poolToken",
          "type": "address"
        },
        {
          "internalType": "uint256",
          "name": "_amountToOffset",
          "type": "uint256"
        }
      ],
      "name": "autoOffsetPoolToken",
      "outputs": [
        {
          "internalType": "address[]",
          "name": "tco2s",
          "type": "address[]"
        },
        {
          "internalType": "uint256[]",
          "name": "amounts",
          "type": "uint256[]"
        }
      ],
      "stateMutability": "nonpayable",
      "type": "function"
    },
    {
      "inputs": [
        {
          "internalType": "address",
          "name": "_fromToken",
          "type": "address"
        },
        {
          "internalType": "uint256",
          "name": "_amount",
          "type": "uint256"
        }
      ],
      "name": "autoRedeem",
      "outputs": [
        {
          "internalType": "address[]",
          "name": "tco2s",
          "type": "address[]"
        },
        {
          "internalType": "uint256[]",
          "name": "amounts",
          "type": "uint256[]"
        }
      ],
      "stateMutability": "nonpayable",
      "type": "function"
    },
    {
      "inputs": [
        {
          "internalType": "address[]",
          "name": "_tco2s",
          "type": "address[]"
        },
        {
          "internalType": "uint256[]",
          "name": "_amounts",
          "type": "uint256[]"
        }
      ],
      "name": "autoRetire",
      "outputs": [],
      "stateMutability": "nonpayable",
      "type": "function"
    },
    {
      "inputs": [
        {
          "internalType": "address",
          "name": "",
          "type": "address"
        },
        {
          "internalType": "address",
          "name": "",
          "type": "address"
        }
      ],
      "name": "balances",
      "outputs": [
        {
          "internalType": "uint256",
          "name": "",
          "type": "uint256"
        }
      ],
      "stateMutability": "view",
      "type": "function"
    },
    {
      "inputs": [
        {
          "internalType": "address",
          "name": "_poolToken",
          "type": "address"
        },
        {
          "internalType": "uint256",
          "name": "_fromTokenAmount",
          "type": "uint256"
        }
      ],
      "name": "calculateExpectedPoolTokenForETH",
      "outputs": [
        {
          "internalType": "uint256",
          "name": "amountOut",
          "type": "uint256"
        }
      ],
      "stateMutability": "view",
      "type": "function"
    },
    {
      "inputs": [
        {
          "internalType": "address",
          "name": "_fromToken",
          "type": "address"
        },
        {
          "internalType": "address",
          "name": "_poolToken",
          "type": "address"
        },
        {
          "internalType": "uint256",
          "name": "_fromAmount",
          "type": "uint256"
        }
      ],
      "name": "calculateExpectedPoolTokenForToken",
      "outputs": [
        {
          "internalType": "uint256",
          "name": "amountOut",
          "type": "uint256"
        }
      ],
      "stateMutability": "view",
      "type": "function"
    },
    {
      "inputs": [
        {
          "internalType": "address",
          "name": "_poolToken",
          "type": "address"
        },
        {
          "internalType": "uint256",
          "name": "_toAmount",
          "type": "uint256"
        }
      ],
      "name": "calculateNeededETHAmount",
      "outputs": [
        {
          "internalType": "uint256",
          "name": "amountIn",
          "type": "uint256"
        }
      ],
      "stateMutability": "view",
      "type": "function"
    },
    {
      "inputs": [
        {
          "internalType": "address",
          "name": "_fromToken",
          "type": "address"
        },
        {
          "internalType": "address",
          "name": "_poolToken",
          "type": "address"
        },
        {
          "internalType": "uint256",
          "name": "_toAmount",
          "type": "uint256"
        }
      ],
      "name": "calculateNeededTokenAmount",
      "outputs": [
        {
          "internalType": "uint256",
          "name": "amountIn",
          "type": "uint256"
        }
      ],
      "stateMutability": "view",
      "type": "function"
    },
    {
      "inputs": [
        {
          "internalType": "address",
          "name": "_erc20Addr",
          "type": "address"
        },
        {
          "internalType": "uint256",
          "name": "_amount",
          "type": "uint256"
        }
      ],
      "name": "deposit",
      "outputs": [],
      "stateMutability": "nonpayable",
      "type": "function"
    },
    {
      "inputs": [],
      "name": "dexRouterAddress",
      "outputs": [
        {
          "internalType": "address",
          "name": "",
          "type": "address"
        }
      ],
      "stateMutability": "view",
      "type": "function"
    },
    {
      "inputs": [
        {
          "internalType": "address",
          "name": "",
          "type": "address"
        },
        {
          "internalType": "uint256",
          "name": "",
          "type": "uint256"
        }
      ],
      "name": "eligibleSwapPaths",
      "outputs": [
        {
          "internalType": "address",
          "name": "",
          "type": "address"
        }
      ],
      "stateMutability": "view",
      "type": "function"
    },
    {
      "inputs": [
        {
          "internalType": "string",
          "name": "",
          "type": "string"
        },
        {
          "internalType": "uint256",
          "name": "",
          "type": "uint256"
        }
      ],
      "name": "eligibleSwapPathsBySymbol",
      "outputs": [
        {
          "internalType": "address",
          "name": "",
          "type": "address"
        }
      ],
      "stateMutability": "view",
      "type": "function"
    },
    {
      "inputs": [
        {
          "internalType": "address",
          "name": "_erc20Address",
          "type": "address"
        }
      ],
      "name": "isERC20AddressEligible",
      "outputs": [
        {
          "internalType": "address[]",
          "name": "_path",
          "type": "address[]"
        }
      ],
      "stateMutability": "view",
      "type": "function"
    },
    {
      "inputs": [
        {
          "internalType": "address",
          "name": "_poolToken",
          "type": "address"
        }
      ],
      "name": "isPoolAddressEligible",
      "outputs": [
        {
          "internalType": "bool",
          "name": "_isEligible",
          "type": "bool"
        }
      ],
      "stateMutability": "view",
      "type": "function"
    },
    {
      "inputs": [],
      "name": "owner",
      "outputs": [
        {
          "internalType": "address",
          "name": "",
          "type": "address"
        }
      ],
      "stateMutability": "view",
      "type": "function"
    },
    {
      "inputs": [
        {
          "internalType": "uint256",
          "name": "",
          "type": "uint256"
        },
        {
          "internalType": "uint256",
          "name": "",
          "type": "uint256"
        }
      ],
      "name": "paths",
      "outputs": [
        {
          "internalType": "address",
          "name": "",
          "type": "address"
        }
      ],
      "stateMutability": "view",
      "type": "function"
    },
    {
      "inputs": [
        {
          "internalType": "uint256",
          "name": "",
          "type": "uint256"
        }
      ],
      "name": "poolAddresses",
      "outputs": [
        {
          "internalType": "address",
          "name": "",
          "type": "address"
        }
      ],
      "stateMutability": "view",
      "type": "function"
    },
    {
      "inputs": [
        {
          "internalType": "string",
          "name": "_tokenSymbol",
          "type": "string"
        }
      ],
      "name": "removePath",
      "outputs": [],
      "stateMutability": "nonpayable",
      "type": "function"
    },
    {
      "inputs": [
        {
          "internalType": "address",
          "name": "_poolToken",
          "type": "address"
        }
      ],
      "name": "removePoolToken",
      "outputs": [],
      "stateMutability": "nonpayable",
      "type": "function"
    },
    {
      "inputs": [],
      "name": "renounceOwnership",
      "outputs": [],
      "stateMutability": "nonpayable",
      "type": "function"
    },
    {
      "inputs": [
        {
          "internalType": "address",
          "name": "_poolToken",
          "type": "address"
        }
      ],
      "name": "swapExactInETH",
      "outputs": [
        {
          "internalType": "uint256",
          "name": "amountOut",
          "type": "uint256"
        }
      ],
      "stateMutability": "payable",
      "type": "function"
    },
    {
      "inputs": [
        {
          "internalType": "address",
          "name": "_fromToken",
          "type": "address"
        },
        {
          "internalType": "address",
          "name": "_poolToken",
          "type": "address"
        },
        {
          "internalType": "uint256",
          "name": "_fromAmount",
          "type": "uint256"
        }
      ],
      "name": "swapExactInToken",
      "outputs": [
        {
          "internalType": "uint256",
          "name": "amountOut",
          "type": "uint256"
        }
      ],
      "stateMutability": "nonpayable",
      "type": "function"
    },
    {
      "inputs": [
        {
          "internalType": "address",
          "name": "_poolToken",
          "type": "address"
        },
        {
          "internalType": "uint256",
          "name": "_toAmount",
          "type": "uint256"
        }
      ],
      "name": "swapExactOutETH",
      "outputs": [],
      "stateMutability": "payable",
      "type": "function"
    },
    {
      "inputs": [
        {
          "internalType": "address",
          "name": "_fromToken",
          "type": "address"
        },
        {
          "internalType": "address",
          "name": "_poolToken",
          "type": "address"
        },
        {
          "internalType": "uint256",
          "name": "_toAmount",
          "type": "uint256"
        }
      ],
      "name": "swapExactOutToken",
      "outputs": [],
      "stateMutability": "nonpayable",
      "type": "function"
    },
    {
      "inputs": [
        {
          "internalType": "uint256",
          "name": "",
          "type": "uint256"
        }
      ],
      "name": "tokenSymbolsForPaths",
      "outputs": [
        {
          "internalType": "string",
          "name": "",
          "type": "string"
        }
      ],
      "stateMutability": "view",
      "type": "function"
    },
    {
      "inputs": [
        {
          "internalType": "address",
          "name": "newOwner",
          "type": "address"
        }
      ],
      "name": "transferOwnership",
      "outputs": [],
      "stateMutability": "nonpayable",
      "type": "function"
    },
    {
      "inputs": [
        {
          "internalType": "address",
          "name": "_erc20Addr",
          "type": "address"
        },
        {
          "internalType": "uint256",
          "name": "_amount",
          "type": "uint256"
        }
      ],
      "name": "withdraw",
      "outputs": [],
      "stateMutability": "nonpayable",
      "type": "function"
    },
    {
      "stateMutability": "payable",
      "type": "receive"
    }
  ],
  "transactionHash": "0xe4e93181b88812f2bc58881ce82f8a0099d7436ce5e922e7a838661e832786a7",
  "args": [
    [
      "0x2F800Db0fdb5223b3C3f354886d907A671414A7F",
      "0xD838290e877E0188a4A44700463419ED96c16107"
    ],
    [
      "USDC",
      "WETH",
      "WMATIC"
    ],
    [
      [
        "0x2791Bca1f2de4661ED88A30C99A7a9449Aa84174"
      ],
      [
        "0x7ceB23fD6bC0adD59E62ac25578270cFf1b9f619",
        "0x2791Bca1f2de4661ED88A30C99A7a9449Aa84174"
      ],
      [
        "0x0d500B1d8E8eF31E21C99d1Db9A6444d3ADf1270",
        "0x2791Bca1f2de4661ED88A30C99A7a9449Aa84174"
      ]
    ],
    "0x1b02dA8Cb0d097eB8D57A175b88c7D8b47997506"
  ],
  "numDeployments": 7,
  "solcInputHash": "86a6c061e9cc16763d7ce0a91f6467d0",
  "bytecode": "0x60806040523480156200001157600080fd5b506040516200409f3803806200409f8339810160408190526200003491620005df565b6200003f3362000207565b83516200005490600390602087019062000257565b5082516200006a906004906020860190620002c1565b5081516200008090600590602085019062000321565b50600680546001600160a01b0319166001600160a01b038316179055825160005b81811015620001fb57838181518110620000cb57634e487b7160e01b600052603260045260246000fd5b602002602001015160016000868481518110620000f857634e487b7160e01b600052603260045260246000fd5b60200260200101516000815181106200012157634e487b7160e01b600052603260045260246000fd5b60200260200101516001600160a01b03166001600160a01b0316815260200190815260200160002090805190602001906200015e92919062000257565b508381815181106200018057634e487b7160e01b600052603260045260246000fd5b60200260200101516002868381518110620001ab57634e487b7160e01b600052603260045260246000fd5b6020026020010151604051620001c2919062000756565b90815260200160405180910390209080519060200190620001e592919062000257565b5080620001f2816200083d565b915050620000a1565b5050505050506200087b565b600080546001600160a01b038381166001600160a01b0319831681178455604051919092169283917f8be0079c531659141344cd1fd0a4f28419497f9722a3daafe3b4186f6b6457e09190a35050565b828054828255906000526020600020908101928215620002af579160200282015b82811115620002af57825182546001600160a01b0319166001600160a01b0390911617825560209092019160019091019062000278565b50620002bd92915062000381565b5090565b82805482825590600052602060002090810192821562000313579160200282015b828111156200031357825180516200030291849160209091019062000398565b5091602001919060010190620002e2565b50620002bd92915062000415565b82805482825590600052602060002090810192821562000373579160200282015b828111156200037357825180516200036291849160209091019062000257565b509160200191906001019062000342565b50620002bd92915062000436565b5b80821115620002bd576000815560010162000382565b828054620003a69062000800565b90600052602060002090601f016020900481019282620003ca5760008555620002af565b82601f10620003e557805160ff1916838001178555620002af565b82800160010185558215620002af579182015b82811115620002af578251825591602001919060010190620003f8565b80821115620002bd5760006200042c828262000457565b5060010162000415565b80821115620002bd5760006200044d828262000499565b5060010162000436565b508054620004659062000800565b6000825580601f1062000476575050565b601f01602090049060005260206000209081019062000496919062000381565b50565b508054600082559060005260206000209081019062000496919062000381565b80516001600160a01b0381168114620004d157600080fd5b919050565b600082601f830112620004e7578081fd5b8151602062000500620004fa83620007a7565b62000774565b80838252828201915082860187848660051b890101111562000520578586fd5b855b8581101562000549576200053682620004b9565b8452928401929084019060010162000522565b5090979650505050505050565b600082601f83011262000567578081fd5b815160206200057a620004fa83620007a7565b80838252828201915082860187848660051b89010111156200059a578586fd5b855b85811015620005495781516001600160401b03811115620005bb578788fd5b620005cb8a87838c0101620004d6565b85525092840192908401906001016200059c565b60008060008060808587031215620005f5578384fd5b84516001600160401b03808211156200060c578586fd5b6200061a88838901620004d6565b9550602087015191508082111562000630578485fd5b818701915087601f83011262000644578485fd5b815162000655620004fa82620007a7565b80828252602082019150602085018b60208560051b880101111562000678578889fd5b885b84811015620007105781518681111562000692578a8bfd5b8701603f81018e13620006a3578a8bfd5b602081015187811115620006bb57620006bb62000865565b620006d0601f8201601f191660200162000774565b8181528f6040838501011115620006e5578c8dfd5b620006f8826020830160408601620007cd565b8652505060209384019391909101906001016200067a565b505060408a015190975093505050808211156200072b578384fd5b506200073a8782880162000556565b9250506200074b60608601620004b9565b905092959194509250565b600082516200076a818460208701620007cd565b9190910192915050565b604051601f8201601f191681016001600160401b03811182821017156200079f576200079f62000865565b604052919050565b60006001600160401b03821115620007c357620007c362000865565b5060051b60200190565b60005b83811015620007ea578181015183820152602001620007d0565b83811115620007fa576000848401525b50505050565b600181811c908216806200081557607f821691505b602082108114156200083757634e487b7160e01b600052602260045260246000fd5b50919050565b60006000198214156200085e57634e487b7160e01b81526011600452602481fd5b5060010190565b634e487b7160e01b600052604160045260246000fd5b613814806200088b6000396000f3fe6080604052600436106101f25760003560e01c80638da5cb5b1161010d578063c23f001f116100a0578063e7f67fb11161006f578063e7f67fb1146105c7578063f04ad9d7146105e7578063f2fde38b146105fa578063f3fef3a31461061a578063feb21b9c1461063a57600080fd5b8063c23f001f1461053c578063c6c53efb14610574578063d08ec47514610594578063d8a90c40146105b457600080fd5b8063a2844a86116100dc578063a2844a86146104ac578063b4e76a86146104dc578063b8baf9db146104fc578063c0681c3d1461051c57600080fd5b80638da5cb5b1461042e5780639753209d1461044c578063a09457221461046c578063a0cd60491461048c57600080fd5b80635367cd9c11610185578063715018a611610154578063715018a6146103b957806373200b11146103ce57806382155e7e146103ee5780638474c2881461040e57600080fd5b80635367cd9c1461032c57806356a7de0d1461033f57806368d306d91461035f5780636d4565041461038c57600080fd5b80632e98c814116101c15780632e98c814146102ab57806335bab7e5146102cc57806347e7ef24146102ec5780634865b2b41461030c57600080fd5b80631109ec99146101fe5780631357b113146102315780631661f818146102695780631a0fdecc1461028b57600080fd5b366101f957005b600080fd5b34801561020a57600080fd5b5061021e6102193660046130db565b61065a565b6040519081526020015b60405180910390f35b34801561023d57600080fd5b5061025161024c3660046130db565b61072e565b6040516001600160a01b039091168152602001610228565b34801561027557600080fd5b50610289610284366004613106565b610766565b005b34801561029757600080fd5b5061021e6102a636600461309b565b610a5d565b6102be6102b93660046130db565b610af0565b6040516102289291906134d8565b3480156102d857600080fd5b5061021e6102e736600461309b565b610b4d565b3480156102f857600080fd5b506102896103073660046130db565b610cf8565b34801561031857600080fd5b5061021e61032736600461309b565b610d70565b61028961033a3660046130db565b610dfb565b34801561034b57600080fd5b5061028961035a366004613040565b6110b9565b34801561036b57600080fd5b5061037f61037a366004613040565b611205565b60405161022891906134c5565b34801561039857600080fd5b506103ac6103a73660046133a8565b61127b565b604051610228919061353b565b3480156103c557600080fd5b50610289611327565b3480156103da57600080fd5b506102516103e9366004613365565b61133b565b3480156103fa57600080fd5b506102be6104093660046130db565b611366565b34801561041a57600080fd5b5061028961042936600461309b565b6115c7565b34801561043a57600080fd5b506000546001600160a01b0316610251565b34801561045857600080fd5b506102896104673660046132db565b61188b565b34801561047857600080fd5b506102be61048736600461309b565b61192f565b34801561049857600080fd5b506102be6104a736600461309b565b611963565b3480156104b857600080fd5b506104cc6104c7366004613040565b611992565b6040519015158152602001610228565b3480156104e857600080fd5b5061021e6104f73660046130db565b6119a3565b34801561050857600080fd5b5061028961051736600461330e565b611a97565b34801561052857600080fd5b50610289610537366004613040565b611b7c565b34801561054857600080fd5b5061021e610557366004613063565b600760209081526000928352604080842090915290825290205481565b34801561058057600080fd5b5061025161058f3660046133d8565b611bd6565b3480156105a057600080fd5b506102be6105af3660046130db565b611bfe565b61021e6105c2366004613040565b611c0b565b3480156105d357600080fd5b50600654610251906001600160a01b031681565b6102be6105f5366004613040565b611deb565b34801561060657600080fd5b50610289610615366004613040565b611e4a565b34801561062657600080fd5b506102896106353660046130db565b611ec0565b34801561064657600080fd5b506102516106553660046133a8565b611f7a565b60008261066681611fa4565b61068b5760405162461bcd60e51b8152600401610682906135a5565b60405180910390fd5b600060026040516106a89065574d4154494360d01b815260060190565b90815260200160405180910390206000815481106106d657634e487b7160e01b600052603260045260246000fd5b60009182526020822001546001600160a01b031691506106f782878761201c565b9150508060008151811061071b57634e487b7160e01b600052603260045260246000fd5b6020026020010151935050505092915050565b6001602052816000526040600020818154811061074a57600080fd5b6000918252602090912001546001600160a01b03169150829050565b8151806107a35760405162461bcd60e51b815260206004820152600b60248201526a417272617920656d70747960a81b6044820152606401610682565b815181146107c35760405162461bcd60e51b8152600401610682906135d4565b60005b81811015610a57578281815181106107ee57634e487b7160e01b600052603260045260246000fd5b60200260200101516000141561080357610a45565b82818151811061082357634e487b7160e01b600052603260045260246000fd5b602002602001015160076000336001600160a01b03166001600160a01b03168152602001908152602001600020600086848151811061087257634e487b7160e01b600052603260045260246000fd5b60200260200101516001600160a01b03166001600160a01b031681526020019081526020016000205410156108e95760405162461bcd60e51b815260206004820152601960248201527f496e73756666696369656e742054434f322062616c616e6365000000000000006044820152606401610682565b82818151811061090957634e487b7160e01b600052603260045260246000fd5b602002602001015160076000336001600160a01b03166001600160a01b03168152602001908152602001600020600086848151811061095857634e487b7160e01b600052603260045260246000fd5b60200260200101516001600160a01b03166001600160a01b03168152602001908152602001600020600082825461098f9190613704565b925050819055508381815181106109b657634e487b7160e01b600052603260045260246000fd5b60200260200101516001600160a01b0316633790cf578483815181106109ec57634e487b7160e01b600052603260045260246000fd5b60200260200101516040518263ffffffff1660e01b8152600401610a1291815260200190565b600060405180830381600087803b158015610a2c57600080fd5b505af1158015610a40573d6000803e3d6000fd5b505050505b80610a4f81613782565b9150506107c6565b50505050565b600083610a698161215c565b610a855760405162461bcd60e51b81526004016106829061356e565b83610a8f81611fa4565b610aab5760405162461bcd60e51b8152600401610682906135a5565b6000610ab887878761201c565b91505080600081518110610adc57634e487b7160e01b600052603260045260246000fd5b602002602001015193505050509392505050565b60608061a4ec4614158015610b07575061aef34614155b610b235760405162461bcd60e51b8152600401610682906135fc565b610b2d8484610dfb565b610b378484611366565b9092509050610b468282610766565b9250929050565b600083610b598161215c565b610b755760405162461bcd60e51b81526004016106829061356e565b83610b7f81611fa4565b610b9b5760405162461bcd60e51b8152600401610682906135a5565b6000610ba787876121f5565b8051909150610bc16001600160a01b0389163330896127f3565b600654610bdb906001600160a01b038a811691168861285e565b6000610bef6006546001600160a01b031690565b6001600160a01b03166338ed17398860008630426040518663ffffffff1660e01b8152600401610c2395949392919061365b565b600060405180830381600087803b158015610c3d57600080fd5b505af1158015610c51573d6000803e3d6000fd5b505050506040513d6000823e601f3d908101601f19168201604052610c799190810190613288565b905080610c87600184613704565b81518110610ca557634e487b7160e01b600052603260045260246000fd5b6020908102919091018101513360009081526007835260408082206001600160a01b038d168352909352918220805491985088929091610ce69084906136ec565b90915550959998505050505050505050565b81610d0281611fa4565b610d1e5760405162461bcd60e51b8152600401610682906135a5565b610d336001600160a01b0384163330856127f3565b3360009081526007602090815260408083206001600160a01b038716845290915281208054849290610d669084906136ec565b9091555050505050565b600083610d7c8161215c565b610d985760405162461bcd60e51b81526004016106829061356e565b83610da281611fa4565b610dbe5760405162461bcd60e51b8152600401610682906135a5565b6000610dcb878787612982565b9150508060018251610ddd9190613704565b81518110610adc57634e487b7160e01b600052603260045260246000fd5b61a4ec4614158015610e0f575061aef34614155b610e2b5760405162461bcd60e51b8152600401610682906135fc565b81610e3581611fa4565b610e515760405162461bcd60e51b8152600401610682906135a5565b60006002604051610e6e9065574d4154494360d01b815260060190565b9081526020016040518091039020600081548110610e9c57634e487b7160e01b600052603260045260246000fd5b60009182526020822001546001600160a01b03169150610ebc82866121f5565b90506000610ed26006546001600160a01b031690565b6001600160a01b031663fb3bdb4134878530426040518663ffffffff1660e01b8152600401610f049493929190613506565b6000604051808303818588803b158015610f1d57600080fd5b505af1158015610f31573d6000803e3d6000fd5b50505050506040513d6000823e601f3d908101601f19168201604052610f5a9190810190613288565b905080600081518110610f7d57634e487b7160e01b600052603260045260246000fd5b602002602001015134111561107957600081600081518110610faf57634e487b7160e01b600052603260045260246000fd5b602002602001015134610fc29190613704565b604080516000808252602082019283905292935033918491610fe39161346b565b60006040518083038185875af1925050503d8060008114611020576040519150601f19603f3d011682016040523d82523d6000602084013e611025565b606091505b50509050806110765760405162461bcd60e51b815260206004820152601b60248201527f4661696c656420746f2073656e6420737572706c7573206261636b00000000006044820152606401610682565b50505b3360009081526007602090815260408083206001600160a01b038a168452909152812080548792906110ac9084906136ec565b9091555050505050505050565b6110c1612ab8565b60005b60035481101561120157816001600160a01b0316600382815481106110f957634e487b7160e01b600052603260045260246000fd5b6000918252602090912001546001600160a01b031614156111ef576003805461112490600190613704565b8154811061114257634e487b7160e01b600052603260045260246000fd5b600091825260209091200154600380546001600160a01b03909216918390811061117c57634e487b7160e01b600052603260045260246000fd5b9060005260206000200160006101000a8154816001600160a01b0302191690836001600160a01b0316021790555060038054806111c957634e487b7160e01b600052603160045260246000fd5b600082815260209020810160001990810180546001600160a01b03191690550190555050565b806111f981613782565b9150506110c4565b5050565b6001600160a01b03811660009081526001602090815260409182902080548351818402810184019094528084526060939283018282801561126f57602002820191906000526020600020905b81546001600160a01b03168152600190910190602001808311611251575b50505050509050919050565b6004818154811061128b57600080fd5b9060005260206000200160009150905080546112a690613747565b80601f01602080910402602001604051908101604052809291908181526020018280546112d290613747565b801561131f5780601f106112f45761010080835404028352916020019161131f565b820191906000526020600020905b81548152906001019060200180831161130257829003601f168201915b505050505081565b61132f612ab8565b6113396000612b12565b565b8151602081840181018051600282529282019185019190912091905280548290811061074a57600080fd5b6060808361137381611fa4565b61138f5760405162461bcd60e51b8152600401610682906135a5565b3360009081526007602090815260408083206001600160a01b03891684529091529020548411156114025760405162461bcd60e51b815260206004820152601c60248201527f496e73756666696369656e74204e43542f4243542062616c616e6365000000006044820152606401610682565b604051634c02cad160e01b81526004810185905285906001600160a01b03821690634c02cad190602401600060405180830381600087803b15801561144657600080fd5b505af115801561145a573d6000803e3d6000fd5b505050506040513d6000823e601f3d908101601f1916820160405261148291908101906131c2565b3360009081526007602090815260408083206001600160a01b038c1684529091528120805493975091955087926114ba908490613704565b9091555050835160005b8181101561157f578481815181106114ec57634e487b7160e01b600052603260045260246000fd5b602002602001015160076000336001600160a01b03166001600160a01b03168152602001908152602001600020600088848151811061153b57634e487b7160e01b600052603260045260246000fd5b60200260200101516001600160a01b03166001600160a01b03168152602001908152602001600020600082825461157291906136ec565b90915550506001016114c4565b507f3d29f82a20ec733db9f357c4dc1ae0ee60c572cc4b877384aa4639e4d877b188338887876040516115b59493929190613487565b60405180910390a15050509250929050565b826115d18161215c565b6115ed5760405162461bcd60e51b81526004016106829061356e565b826115f781611fa4565b6116135760405162461bcd60e51b8152600401610682906135a5565b60008061162187878761201c565b9150915060008160008151811061164857634e487b7160e01b600052603260045260246000fd5b6020908102919091010151905061166a6001600160a01b0389163330846127f3565b60065460405163095ea7b360e01b81526001600160a01b039182166004820152602481018390529089169063095ea7b390604401602060405180830381600087803b1580156116b857600080fd5b505af11580156116cc573d6000803e3d6000fd5b505050506040513d601f19601f820116820180604052508101906116f091906132bb565b5060006117056006546001600160a01b031690565b6001600160a01b0316638803dbee88848730426040518663ffffffff1660e01b815260040161173895949392919061365b565b600060405180830381600087803b15801561175257600080fd5b505af1158015611766573d6000803e3d6000fd5b505050506040513d6000823e601f3d908101601f1916820160405261178e9190810190613288565b905081816000815181106117b257634e487b7160e01b600052603260045260246000fd5b602002602001015110156118485760065460405163095ea7b360e01b81526001600160a01b03918216600482015260006024820152908a169063095ea7b390604401602060405180830381600087803b15801561180e57600080fd5b505af1158015611822573d6000803e3d6000fd5b505050506040513d601f19601f8201168201806040525081019061184691906132bb565b505b3360009081526007602090815260408083206001600160a01b038c1684529091528120805489929061187b9084906136ec565b9091555050505050505050505050565b611893612ab8565b600160006002836040516118a7919061346b565b90815260200160405180910390206000815481106118d557634e487b7160e01b600052603260045260246000fd5b60009182526020808320909101546001600160a01b03168352820192909252604001812061190291612df4565b600281604051611912919061346b565b9081526020016040518091039020600061192c9190612df4565b50565b606080600061193f868686610b4d565b905061194b8582611366565b909350915061195a8383610766565b50935093915050565b6060806119718585856115c7565b61197b8484611366565b909250905061198a8282610766565b935093915050565b600061199d82611fa4565b92915050565b600061a4ec46141580156119b9575061aef34614155b6119d55760405162461bcd60e51b8152600401610682906135fc565b826119df81611fa4565b6119fb5760405162461bcd60e51b8152600401610682906135a5565b60006002604051611a189065574d4154494360d01b815260060190565b9081526020016040518091039020600081548110611a4657634e487b7160e01b600052603260045260246000fd5b60009182526020822001546001600160a01b03169150611a67828787612982565b9150508060018251611a799190613704565b8151811061071b57634e487b7160e01b600052603260045260246000fd5b611a9f612ab8565b806001600083600081518110611ac557634e487b7160e01b600052603260045260246000fd5b60200260200101516001600160a01b03166001600160a01b031681526020019081526020016000209080519060200190611b00929190612e12565b5080600283604051611b12919061346b565b90815260200160405180910390209080519060200190611b33929190612e12565b50600480546001810182556000919091528251611b77917f8a35acfbc15ff81a39ae7d344fd709f28e8600b4aa8c65c6b64bfe7fe36bd19b01906020850190612e77565b505050565b611b84612ab8565b600380546001810182556000919091527fc2575a0e9e593c00f959f8c92f12db2869c3395a3b0502d05e2516446f71f85b0180546001600160a01b0319166001600160a01b0392909216919091179055565b60058281548110611be657600080fd5b90600052602060002001818154811061074a57600080fd5b606080610b2d8484610cf8565b600061a4ec4614158015611c21575061aef34614155b611c3d5760405162461bcd60e51b8152600401610682906135fc565b81611c4781611fa4565b611c635760405162461bcd60e51b8152600401610682906135a5565b60405165574d4154494360d01b815234906000906002906006019081526020016040518091039020600081548110611cab57634e487b7160e01b600052603260045260246000fd5b60009182526020822001546001600160a01b03169150611ccb82876121f5565b80519091506000611ce46006546001600160a01b031690565b6001600160a01b0316637ff36ab58660008630426040518663ffffffff1660e01b8152600401611d179493929190613506565b6000604051808303818588803b158015611d3057600080fd5b505af1158015611d44573d6000803e3d6000fd5b50505050506040513d6000823e601f3d908101601f19168201604052611d6d9190810190613288565b905080611d7b600184613704565b81518110611d9957634e487b7160e01b600052603260045260246000fd5b6020908102919091018101513360009081526007835260408082206001600160a01b038d168352909352918220805491995089929091611dda9084906136ec565b909155509698975050505050505050565b60608061a4ec4614158015611e02575061aef34614155b611e1e5760405162461bcd60e51b8152600401610682906135fc565b6000611e2984611c0b565b9050611e358482611366565b9093509150611e448383610766565b50915091565b611e52612ab8565b6001600160a01b038116611eb75760405162461bcd60e51b815260206004820152602660248201527f4f776e61626c653a206e6577206f776e657220697320746865207a65726f206160448201526564647265737360d01b6064820152608401610682565b61192c81612b12565b3360009081526007602090815260408083206001600160a01b0386168452909152902054811115611f2a5760405162461bcd60e51b8152602060048201526014602482015273496e73756666696369656e742062616c616e636560601b6044820152606401610682565b611f3e6001600160a01b0383163383612b62565b3360009081526007602090815260408083206001600160a01b038616845290915281208054839290611f71908490613704565b90915550505050565b60038181548110611f8a57600080fd5b6000918252602090912001546001600160a01b0316905081565b6000805b60035481101561201357826001600160a01b031660038281548110611fdd57634e487b7160e01b600052603260045260246000fd5b6000918252602090912001546001600160a01b031614156120015750600192915050565b8061200b81613782565b915050611fa8565b50600092915050565b60608061202985856121f5565b80519092506120406006546001600160a01b031690565b6001600160a01b0316631f00ca7485856040518363ffffffff1660e01b815260040161206d929190613642565b60006040518083038186803b15801561208557600080fd5b505afa158015612099573d6000803e3d6000fd5b505050506040513d6000823e601f3d908101601f191682016040526120c19190810190613288565b9150815181146120e35760405162461bcd60e51b8152600401610682906135d4565b816120ef600183613704565b8151811061210d57634e487b7160e01b600052603260045260246000fd5b6020026020010151841461195a5760405162461bcd60e51b815260206004820152601660248201527509eeae8e0eae840c2dadeeadce840dad2e6dac2e8c6d60531b6044820152606401610682565b6000805b60055481101561201357826001600160a01b03166005828154811061219557634e487b7160e01b600052603260045260246000fd5b906000526020600020016000815481106121bf57634e487b7160e01b600052603260045260246000fd5b6000918252602090912001546001600160a01b031614156121e35750600192915050565b806121ed81613782565b915050612160565b6001600160a01b0382166000908152600160208190526040909120546060918114156122c5576040805160028082526060820183529091602083019080368337019050509150838260008151811061225d57634e487b7160e01b600052603260045260246000fd5b60200260200101906001600160a01b031690816001600160a01b031681525050828260018151811061229f57634e487b7160e01b600052603260045260246000fd5b60200260200101906001600160a01b031690816001600160a01b0316815250505061199d565b80600214156123f757604080516003808252608082019092529060208201606080368337019050509150838260008151811061231157634e487b7160e01b600052603260045260246000fd5b60200260200101906001600160a01b031690816001600160a01b03168152505060016000856001600160a01b03166001600160a01b0316815260200190815260200160002060018154811061237657634e487b7160e01b600052603260045260246000fd5b9060005260206000200160009054906101000a90046001600160a01b0316826001815181106123b557634e487b7160e01b600052603260045260246000fd5b60200260200101906001600160a01b031690816001600160a01b031681525050828260028151811061229f57634e487b7160e01b600052603260045260246000fd5b80600314156125b457604080516003808252608082019092529060208201606080368337019050509150838260008151811061244357634e487b7160e01b600052603260045260246000fd5b60200260200101906001600160a01b031690816001600160a01b03168152505060016000856001600160a01b03166001600160a01b031681526020019081526020016000206001815481106124a857634e487b7160e01b600052603260045260246000fd5b9060005260206000200160009054906101000a90046001600160a01b0316826001815181106124e757634e487b7160e01b600052603260045260246000fd5b6001600160a01b0392831660209182029290920181019190915290851660009081526001909152604090208054600290811061253357634e487b7160e01b600052603260045260246000fd5b9060005260206000200160009054906101000a90046001600160a01b03168260028151811061257257634e487b7160e01b600052603260045260246000fd5b60200260200101906001600160a01b031690816001600160a01b031681525050828260038151811061229f57634e487b7160e01b600052603260045260246000fd5b60408051600480825260a08201909252906020820160808036833701905050915083826000815181106125f757634e487b7160e01b600052603260045260246000fd5b60200260200101906001600160a01b031690816001600160a01b03168152505060016000856001600160a01b03166001600160a01b0316815260200190815260200160002060018154811061265c57634e487b7160e01b600052603260045260246000fd5b9060005260206000200160009054906101000a90046001600160a01b03168260018151811061269b57634e487b7160e01b600052603260045260246000fd5b6001600160a01b039283166020918202929092018101919091529085166000908152600190915260409020805460029081106126e757634e487b7160e01b600052603260045260246000fd5b9060005260206000200160009054906101000a90046001600160a01b03168260028151811061272657634e487b7160e01b600052603260045260246000fd5b6001600160a01b0392831660209182029290920181019190915290851660009081526001909152604090208054600390811061277257634e487b7160e01b600052603260045260246000fd5b9060005260206000200160009054906101000a90046001600160a01b0316826003815181106127b157634e487b7160e01b600052603260045260246000fd5b60200260200101906001600160a01b031690816001600160a01b031681525050828260048151811061229f57634e487b7160e01b600052603260045260246000fd5b6040516001600160a01b0380851660248301528316604482015260648101829052610a579085906323b872dd60e01b906084015b60408051601f198184030181529190526020810180516001600160e01b03166001600160e01b031990931692909217909152612b92565b8015806128e75750604051636eb1769f60e11b81523060048201526001600160a01b03838116602483015284169063dd62ed3e9060440160206040518083038186803b1580156128ad57600080fd5b505afa1580156128c1573d6000803e3d6000fd5b505050506040513d601f19601f820116820180604052508101906128e591906133c0565b155b6129525760405162461bcd60e51b815260206004820152603660248201527f5361666545524332303a20617070726f76652066726f6d206e6f6e2d7a65726f60448201527520746f206e6f6e2d7a65726f20616c6c6f77616e636560501b6064820152608401610682565b6040516001600160a01b038316602482015260448101829052611b7790849063095ea7b360e01b90606401612827565b60608061298f85856121f5565b80519092506129a66006546001600160a01b031690565b6001600160a01b031663d06ca61f85856040518363ffffffff1660e01b81526004016129d3929190613642565b60006040518083038186803b1580156129eb57600080fd5b505afa1580156129ff573d6000803e3d6000fd5b505050506040513d6000823e601f3d908101601f19168201604052612a279190810190613288565b915081518114612a495760405162461bcd60e51b8152600401610682906135d4565b81600081518110612a6a57634e487b7160e01b600052603260045260246000fd5b6020026020010151841461195a5760405162461bcd60e51b8152602060048201526015602482015274092dce0eae840c2dadeeadce840dad2e6dac2e8c6d605b1b6044820152606401610682565b6000546001600160a01b031633146113395760405162461bcd60e51b815260206004820181905260248201527f4f776e61626c653a2063616c6c6572206973206e6f7420746865206f776e65726044820152606401610682565b600080546001600160a01b038381166001600160a01b0319831681178455604051919092169283917f8be0079c531659141344cd1fd0a4f28419497f9722a3daafe3b4186f6b6457e09190a35050565b6040516001600160a01b038316602482015260448101829052611b7790849063a9059cbb60e01b90606401612827565b6000612be7826040518060400160405280602081526020017f5361666545524332303a206c6f772d6c6576656c2063616c6c206661696c6564815250856001600160a01b0316612c679092919063ffffffff16565b9050805160001480612c08575080806020019051810190612c0891906132bb565b611b775760405162461bcd60e51b815260206004820152602a60248201527f5361666545524332303a204552433230206f7065726174696f6e20646964206e6044820152691bdd081cdd58d8d9595960b21b6064820152608401610682565b6060612c768484600085612c7e565b949350505050565b606082471015612cdf5760405162461bcd60e51b815260206004820152602660248201527f416464726573733a20696e73756666696369656e742062616c616e636520666f6044820152651c8818d85b1b60d21b6064820152608401610682565b600080866001600160a01b03168587604051612cfb919061346b565b60006040518083038185875af1925050503d8060008114612d38576040519150601f19603f3d011682016040523d82523d6000602084013e612d3d565b606091505b5091509150612d4e87838387612d59565b979650505050505050565b60608315612dc5578251612dbe576001600160a01b0385163b612dbe5760405162461bcd60e51b815260206004820152601d60248201527f416464726573733a2063616c6c20746f206e6f6e2d636f6e74726163740000006044820152606401610682565b5081612c76565b612c768383815115612dda5781518083602001fd5b8060405162461bcd60e51b8152600401610682919061353b565b508054600082559060005260206000209081019061192c9190612eeb565b828054828255906000526020600020908101928215612e67579160200282015b82811115612e6757825182546001600160a01b0319166001600160a01b03909116178255602090920191600190910190612e32565b50612e73929150612eeb565b5090565b828054612e8390613747565b90600052602060002090601f016020900481019282612ea55760008555612e67565b82601f10612ebe57805160ff1916838001178555612e67565b82800160010185558215612e67579182015b82811115612e67578251825591602001919060010190612ed0565b5b80821115612e735760008155600101612eec565b600082601f830112612f10578081fd5b81356020612f25612f20836136c8565b613697565b80838252828201915082860187848660051b8901011115612f44578586fd5b855b85811015612f6b578135612f59816137c9565b84529284019290840190600101612f46565b5090979650505050505050565b600082601f830112612f88578081fd5b81516020612f98612f20836136c8565b80838252828201915082860187848660051b8901011115612fb7578586fd5b855b85811015612f6b57815184529284019290840190600101612fb9565b600082601f830112612fe5578081fd5b813567ffffffffffffffff811115612fff57612fff6137b3565b613012601f8201601f1916602001613697565b818152846020838601011115613026578283fd5b816020850160208301379081016020019190915292915050565b600060208284031215613051578081fd5b813561305c816137c9565b9392505050565b60008060408385031215613075578081fd5b8235613080816137c9565b91506020830135613090816137c9565b809150509250929050565b6000806000606084860312156130af578081fd5b83356130ba816137c9565b925060208401356130ca816137c9565b929592945050506040919091013590565b600080604083850312156130ed578182fd5b82356130f8816137c9565b946020939093013593505050565b60008060408385031215613118578182fd5b823567ffffffffffffffff8082111561312f578384fd5b61313b86838701612f00565b9350602091508185013581811115613151578384fd5b85019050601f81018613613163578283fd5b8035613171612f20826136c8565b80828252848201915084840189868560051b8701011115613190578687fd5b8694505b838510156131b2578035835260019490940193918501918501613194565b5080955050505050509250929050565b600080604083850312156131d4578182fd5b825167ffffffffffffffff808211156131eb578384fd5b818501915085601f8301126131fe578384fd5b8151602061320e612f20836136c8565b8083825282820191508286018a848660051b890101111561322d578889fd5b8896505b84871015613258578051613244816137c9565b835260019690960195918301918301613231565b5091880151919650909350505080821115613271578283fd5b5061327e85828601612f78565b9150509250929050565b600060208284031215613299578081fd5b815167ffffffffffffffff8111156132af578182fd5b612c7684828501612f78565b6000602082840312156132cc578081fd5b8151801515811461305c578182fd5b6000602082840312156132ec578081fd5b813567ffffffffffffffff811115613302578182fd5b612c7684828501612fd5565b60008060408385031215613320578182fd5b823567ffffffffffffffff80821115613337578384fd5b61334386838701612fd5565b93506020850135915080821115613358578283fd5b5061327e85828601612f00565b60008060408385031215613377578182fd5b823567ffffffffffffffff81111561338d578283fd5b61339985828601612fd5565b95602094909401359450505050565b6000602082840312156133b9578081fd5b5035919050565b6000602082840312156133d1578081fd5b5051919050565b600080604083850312156133ea578182fd5b50508035926020909101359150565b6000815180845260208085019450808401835b838110156134315781516001600160a01b03168752958201959082019060010161340c565b509495945050505050565b6000815180845260208085019450808401835b838110156134315781518752958201959082019060010161344f565b6000825161347d81846020870161371b565b9190910192915050565b6001600160a01b038581168252841660208201526080604082018190526000906134b3908301856133f9565b8281036060840152612d4e818561343c565b60208152600061305c60208301846133f9565b6040815260006134eb60408301856133f9565b82810360208401526134fd818561343c565b95945050505050565b84815260806020820152600061351f60808301866133f9565b6001600160a01b03949094166040830152506060015292915050565b602081526000825180602084015261355a81604085016020870161371b565b601f01601f19169190910160400192915050565b60208082526017908201527f5061746820646f65736e2774207965742065786973742e000000000000000000604082015260600190565b6020808252601590820152742a37b5b2b7103737ba103932b232b2b6b0b136329760591b604082015260600190565b6020808252600e908201526d105c9c985e5cc81d5b995c5d585b60921b604082015260600190565b60208082526026908201527f5468652066756e6374696f6e206973206e6f7420617661696c61626c65206f6e6040820152651021b2b6379760d11b606082015260800190565b828152604060208201526000612c7660408301846133f9565b85815284602082015260a06040820152600061367a60a08301866133f9565b6001600160a01b0394909416606083015250608001529392505050565b604051601f8201601f1916810167ffffffffffffffff811182821017156136c0576136c06137b3565b604052919050565b600067ffffffffffffffff8211156136e2576136e26137b3565b5060051b60200190565b600082198211156136ff576136ff61379d565b500190565b6000828210156137165761371661379d565b500390565b60005b8381101561373657818101518382015260200161371e565b83811115610a575750506000910152565b600181811c9082168061375b57607f821691505b6020821081141561377c57634e487b7160e01b600052602260045260246000fd5b50919050565b60006000198214156137965761379661379d565b5060010190565b634e487b7160e01b600052601160045260246000fd5b634e487b7160e01b600052604160045260246000fd5b6001600160a01b038116811461192c57600080fdfea2646970667358221220c213a8f8db4e9f39d877f6c74968498d41b1ec0eddac5a907fa7f076200fafcd64736f6c63430008040033",
  "devdoc": {
    "events": {
      "Redeemed(address,address,address[],uint256[])": {
        "params": {
          "amounts": "An array of the amounts of each TCO2 that were redeemed",
          "poolToken": "The address of the Toucan pool token used in the redemption,  e.g., NCT",
          "sender": "The sender of the transaction",
          "tco2s": "An array of the TCO2 addresses that were redeemed"
        }
      }
    },
    "kind": "dev",
    "methods": {
      "addPath(string,address[])": {
        "params": {
          "_path": "The path of the path to add",
          "_tokenSymbol": "The symbol of the token to add"
        }
      },
      "addPoolToken(address)": {
        "params": {
          "_poolToken": "The address of the pool token to add"
        }
      },
      "autoOffsetExactInETH(address)": {
        "details": "This function is only available on Polygon, not on Celo.",
        "params": {
          "_poolToken": "The address of the pool token to swap for,  e.g., NCT"
        },
        "returns": {
          "amounts": "An array of the amounts of each TCO2 that were redeemed",
          "tco2s": "An array of the TCO2 addresses that were redeemed"
        }
      },
      "autoOffsetExactInToken(address,address,uint256)": {
        "details": "When automatically redeeming pool tokens for the lowest quality TCO2s there are no fees and you receive exactly 1 TCO2 token for 1 pool token.",
        "params": {
          "_amountToSwap": "The amount of ERC20 token to swap into Toucan pool token. Full amount will be used for offsetting.",
          "_fromToken": "The address of the ERC20 token that the user sends (e.g., cUSD, cUSD, USDC, WETH, WMATIC)",
          "_poolToken": "The address of the Toucan pool token that the user wants to use,  e.g., NCT"
        },
        "returns": {
          "amounts": "An array of the amounts of each TCO2 that were redeemed",
          "tco2s": "An array of the TCO2 addresses that were redeemed"
        }
      },
      "autoOffsetExactOutETH(address,uint256)": {
        "details": "If the user sends too much native tokens , the leftover amount will be sent back to the user. This function is only available on Polygon, not on Celo.",
        "params": {
          "_amountToOffset": "The amount of TCO2 to offset.",
          "_poolToken": "The address of the pool token to swap for,  e.g., NCT"
        },
        "returns": {
          "amounts": "An array of the amounts of each TCO2 that were redeemed",
          "tco2s": "An array of the TCO2 addresses that were redeemed"
        }
      },
      "autoOffsetExactOutToken(address,address,uint256)": {
        "details": "When automatically redeeming pool tokens for the lowest quality TCO2s there are no fees and you receive exactly 1 TCO2 token for 1 pool token.",
        "params": {
          "_amountToOffset": "The amount of TCO2 to offset",
          "_fromToken": "The address of the ERC20 token that the user sends (e.g., cUSD, cUSD, USDC, WETH, WMATIC)",
          "_poolToken": "The address of the Toucan pool token that the user wants to use,  e.g., NCT"
        },
        "returns": {
          "amounts": "An array of the amounts of each TCO2 that were redeemed",
          "tco2s": "An array of the TCO2 addresses that were redeemed"
        }
      },
      "autoOffsetPoolToken(address,uint256)": {
        "params": {
          "_amountToOffset": "The amount of TCO2 to offset.",
          "_poolToken": "The address of the pool token to swap for,  e.g., NCT"
        },
        "returns": {
          "amounts": "An array of the amounts of each TCO2 that were redeemed",
          "tco2s": "An array of the TCO2 addresses that were redeemed"
        }
      },
      "autoRedeem(address,uint256)": {
        "details": "Needs to be approved on the client side",
        "params": {
          "_amount": "Amount to redeem",
          "_fromToken": "Could be the address of NCT"
        },
        "returns": {
          "amounts": "An array of the amounts of each TCO2 that were redeemed",
          "tco2s": "An array of the TCO2 addresses that were redeemed"
        }
      },
      "autoRetire(address[],uint256[])": {
        "params": {
          "_amounts": "The amounts to retire from each of the corresponding TCO2 addresses",
          "_tco2s": "The addresses of the TCO2s to retire"
        }
      },
      "calculateExpectedPoolTokenForETH(address,uint256)": {
        "params": {
          "_fromTokenAmount": "The amount of native tokens  to swap",
          "_poolToken": "The address of the pool token to swap for,  e.g., NCT"
        },
        "returns": {
          "amountOut": "The expected amount of Pool token that can be acquired"
        }
      },
      "calculateExpectedPoolTokenForToken(address,address,uint256)": {
        "params": {
          "_fromAmount": "The amount of ERC20 token to swap",
          "_fromToken": "The address of the ERC20 token used for the swap",
          "_poolToken": "The address of the pool token to swap for,  e.g., NCT"
        },
        "returns": {
          "amountOut": "The expected amount of Pool token that can be acquired"
        }
      },
      "calculateNeededETHAmount(address,uint256)": {
        "params": {
          "_poolToken": "The address of the pool token to swap for, for example, NCT",
          "_toAmount": "The desired amount of pool token to receive"
        },
        "returns": {
          "amountIn": "The amount of native tokens  required in order to swap for the specified amount of the pool token"
        }
      },
      "calculateNeededTokenAmount(address,address,uint256)": {
        "params": {
          "_fromToken": "The address of the ERC20 token used for the swap",
          "_poolToken": "The address of the pool token to swap for,  e.g., NCT",
          "_toAmount": "The desired amount of pool token to receive"
        },
        "returns": {
          "amountIn": "The amount of the ERC20 token required in order to swap for the specified amount of the pool token"
        }
      },
      "constructor": {
        "details": "See `isEligible()` for a list of tokens that can be used in the contract. These can be modified after deployment by the contract owner using `setEligibleTokenAddress()` and `deleteEligibleTokenAddress()`.",
        "params": {
          "_paths": "An array of arrays of addresses to describe the path needed to swap form the baseToken to the pool Token to the provided token symbols.",
          "_poolAddresses": "A list of pool token addresses.",
          "_tokenSymbolsForPaths": "An array of symbols of the token the user want to retire carbon credits for"
        }
      },
      "deposit(address,uint256)": {
        "details": "Needs to be approved"
      },
      "isERC20AddressEligible(address)": {
        "params": {
          "_erc20Address": "The address of the ERC20 token that the user sends (e.g., cUSD, cUSD, USDC, WETH, WMATIC)"
        },
        "returns": {
          "_path": "Returns the path of the token to be exchanged"
        }
      },
      "isPoolAddressEligible(address)": {
        "params": {
          "_poolToken": "The addresses of the pool token to redeem"
        },
        "returns": {
          "_isEligible": "Returns if token can be redeemed"
        }
      },
      "owner()": {
        "details": "Returns the address of the current owner."
      },
      "removePath(string)": {
        "params": {
          "_tokenSymbol": "The symbol of the path to remove"
        }
      },
      "removePoolToken(address)": {
        "params": {
          "_poolToken": "The address of the pool token to remove"
        }
      },
      "renounceOwnership()": {
        "details": "Leaves the contract without owner. It will not be possible to call `onlyOwner` functions. Can only be called by the current owner. NOTE: Renouncing ownership will leave the contract without an owner, thereby disabling any functionality that is only available to the owner."
      },
      "swapExactInETH(address)": {
        "params": {
          "_poolToken": "The address of the pool token to swap for,  e.g., NCT"
        },
        "returns": {
          "amountOut": "Resulting amount of Toucan pool token that got acquired for the swapped native tokens ."
        }
      },
      "swapExactInToken(address,address,uint256)": {
        "details": "Needs to be approved on the client side.",
        "params": {
          "_fromAmount": "The amount of ERC20 token to swap  e.g., NCT",
          "_fromToken": "The address of the ERC20 token used for the swap",
          "_poolToken": "The address of the pool token to swap for,"
        },
        "returns": {
          "amountOut": "Resulting amount of Toucan pool token that got acquired for the swapped ERC20 tokens."
        }
      },
      "swapExactOutETH(address,uint256)": {
        "params": {
          "_poolToken": "The address of the pool token to swap for,  e.g., NCT",
          "_toAmount": "The required amount of the Toucan pool token (NCT/BCT)"
        }
      },
      "transferOwnership(address)": {
        "details": "Transfers ownership of the contract to a new account (`newOwner`). Can only be called by the current owner."
      }
    },
    "title": "Toucan Protocol Offset Helpers",
    "version": 1
  },
  "userdoc": {
    "events": {
      "Redeemed(address,address,address[],uint256[])": {
        "notice": "Emitted upon successful redemption of TCO2 tokens from a Toucan pool token e.g., NCT."
      }
    },
    "kind": "user",
    "methods": {
      "addPath(string,address[])": {
        "notice": "Change or add eligible paths and their addresses."
      },
      "addPoolToken(address)": {
        "notice": "Change or add pool token addresses."
      },
      "autoOffsetExactInETH(address)": {
        "notice": "Retire carbon credits using the lowest quality (oldest) TCO2 tokens available from the specified Toucan token pool by sending native tokens e.g., MATIC. All provided native tokens  is consumed for offsetting. This function: 1. Swaps the Matic sent to the contract for the specified pool token. 2. Redeems the pool token for the poorest quality TCO2 tokens available. 3. Retires the TCO2 tokens."
      },
      "autoOffsetExactInToken(address,address,uint256)": {
        "notice": "Retire carbon credits using the lowest quality (oldest) TCO2 tokens available from the specified Toucan token pool by sending ERC20 tokens (cUSD, USDC, WETH, WMATIC). All provided token is consumed for offsetting. This function: 1. Swaps the ERC20 token sent to the contract for the specified pool token. 2. Redeems the pool token for the poorest quality TCO2 tokens available. 3. Retires the TCO2 tokens. Note: The client must approve the ERC20 token that is sent to the contract."
      },
      "autoOffsetExactOutETH(address,uint256)": {
        "notice": "Retire carbon credits using the lowest quality (oldest) TCO2 tokens available from the specified Toucan token pool by sending native tokens e.g., MATIC. Use `calculateNeededETHAmount()` first in order to find out how much native tokens are required to retire the specified quantity of TCO2. This function: 1. Swaps the Matic sent to the contract for the specified pool token. 2. Redeems the pool token for the poorest quality TCO2 tokens available. 3. Retires the TCO2 tokens."
      },
      "autoOffsetExactOutToken(address,address,uint256)": {
        "notice": "Retire carbon credits using the lowest quality (oldest) TCO2 tokens available from the specified Toucan token pool by sending ERC20 tokens (cUSD, USDC, WETH, WMATIC). Use `calculateNeededTokenAmount` first in order to find out how much of the ERC20 token is required to retire the specified quantity of TCO2. This function: 1. Swaps the ERC20 token sent to the contract for the specified pool token. 2. Redeems the pool token for the poorest quality TCO2 tokens available. 3. Retires the TCO2 tokens. Note: The client must approve the ERC20 token that is sent to the contract."
      },
      "autoOffsetPoolToken(address,uint256)": {
        "notice": "Retire carbon credits using the lowest quality (oldest) TCO2 tokens available by sending Toucan pool tokens,  e.g., NCT. This function: 1. Redeems the pool token for the poorest quality TCO2 tokens available. 2. Retires the TCO2 tokens. Note: The client must approve the pool token that is sent."
      },
      "autoRedeem(address,uint256)": {
        "notice": "Redeems the specified amount of NCT / BCT for TCO2."
      },
      "autoRetire(address[],uint256[])": {
        "notice": "Retire the specified TCO2 tokens."
      },
      "calculateExpectedPoolTokenForETH(address,uint256)": {
        "notice": "Calculates the expected amount of Toucan Pool token that can be acquired by swapping the provided amount of native tokens e.g., MATIC."
      },
      "calculateExpectedPoolTokenForToken(address,address,uint256)": {
        "notice": "Calculates the expected amount of Toucan Pool token that can be acquired by swapping the provided amount of ERC20 token."
      },
      "calculateNeededETHAmount(address,uint256)": {
        "notice": "Return how much native tokens e.g, MATIC is required in order to swap for the desired amount of a Toucan pool token,  e.g., NCT."
      },
      "calculateNeededTokenAmount(address,address,uint256)": {
        "notice": "Return how much of the specified ERC20 token is required in order to swap for the desired amount of a Toucan pool token, for example,  e.g., NCT."
      },
      "constructor": {
        "notice": "Contract constructor. Should specify arrays of ERC20 symbols and addresses that can used by the contract."
      },
      "deposit(address,uint256)": {
        "notice": "Allow users to deposit BCT / NCT."
      },
      "isERC20AddressEligible(address)": {
        "notice": "Checks if ERC20 Token is eligible for Offsetting."
      },
      "isPoolAddressEligible(address)": {
        "notice": "Cheks if Pool Token is eligible for Offsetting."
      },
      "removePath(string)": {
        "notice": "Delete eligible tokens stored in the contract."
      },
      "removePoolToken(address)": {
        "notice": "Delete eligible pool token addresses stored in the contract."
      },
      "swapExactInETH(address)": {
        "notice": "Swap native tokens e.g., MATIC for Toucan pool tokens (BCT/NCT) on SushiSwap. All provided native tokens  will be swapped."
      },
      "swapExactInToken(address,address,uint256)": {
        "notice": "Swap eligible ERC20 tokens for Toucan pool tokens (BCT/NCT) on SushiSwap. All provided ERC20 tokens will be swapped."
      },
      "swapExactOutETH(address,uint256)": {
        "notice": "Swap native tokens e.g., MATIC for Toucan pool tokens (BCT/NCT) on SushiSwap. Remaining native tokens  that was not consumed by the swap is returned."
      },
      "withdraw(address,uint256)": {
        "notice": "Allow users to withdraw tokens they have deposited."
      }
    },
    "notice": "Helper functions that simplify the carbon offsetting (retirement) process. Retiring carbon tokens requires multiple steps and interactions with Toucan Protocol's main contracts: 1. Obtain a Toucan pool token e.g., NCT (by performing a token    swap on a DEX). 2. Redeem the pool token for a TCO2 token. 3. Retire the TCO2 token. These steps are combined in each of the following \"auto offset\" methods implemented in `OffsetHelper` to allow a retirement within one transaction: - `autoOffsetPoolToken()` if the user already owns a Toucan pool   token e.g., NCT, - `autoOffsetExactOutETH()` if the user would like to perform a retirement   using native tokens e.g., MATIC, specifying the exact amount of TCO2s to retire (only on Polygon, not on Celo), - `autoOffsetExactInETH()` if the user would like to perform a retirement   using native tokens, swapping all sent native tokens into TCO2s (only on Polygon, not on Celo), - `autoOffsetExactOutToken()` if the user would like to perform a retirement   using an ERC20 token (cUSD, USDC, WETH or WMATIC), specifying the exact amount   of TCO2s to retire, - `autoOffsetExactInToken()` if the user would like to perform a retirement   using an ERC20 token (cUSD, USDC, WETH or WMATIC), specifying the exact amount   of token to swap into TCO2s. In these methods, \"auto\" refers to the fact that these methods use `autoRedeem()` in order to automatically choose a TCO2 token corresponding to the oldest tokenized carbon project in the specfified token pool. There are no fees incurred by the user when using `autoRedeem()`, i.e., the user receives 1 TCO2 token for each pool token (BCT/NCT) redeemed. There are two `view` helper functions `calculateNeededETHAmount()` and `calculateNeededTokenAmount()` that should be called before using `autoOffsetExactOutETH()` and `autoOffsetExactOutToken()`, to determine how much native tokens e.g., MATIC, respectively how much of the ERC20 token must be sent to the `OffsetHelper` contract in order to retire the specified amount of carbon. The two `view` helper functions `calculateExpectedPoolTokenForETH()` and `calculateExpectedPoolTokenForToken()` can be used to calculate the expected amount of TCO2s that will be offset using functions `autoOffsetExactInETH()` and `autoOffsetExactInToken()`.",
    "version": 1
  },
  "storageLayout": {
    "storage": [
      {
        "astId": 2697,
        "contract": "contracts/OffsetHelper.sol:OffsetHelper",
        "label": "_owner",
        "offset": 0,
        "slot": "0",
        "type": "t_address"
      },
      {
        "astId": 5702,
        "contract": "contracts/OffsetHelper.sol:OffsetHelper",
        "label": "eligibleSwapPaths",
        "offset": 0,
        "slot": "1",
        "type": "t_mapping(t_address,t_array(t_address)dyn_storage)"
      },
      {
        "astId": 5707,
        "contract": "contracts/OffsetHelper.sol:OffsetHelper",
        "label": "eligibleSwapPathsBySymbol",
        "offset": 0,
        "slot": "2",
        "type": "t_mapping(t_string_memory_ptr,t_array(t_address)dyn_storage)"
      },
      {
        "astId": 5710,
        "contract": "contracts/OffsetHelper.sol:OffsetHelper",
        "label": "poolAddresses",
        "offset": 0,
        "slot": "3",
        "type": "t_array(t_address)dyn_storage"
      },
      {
        "astId": 5713,
        "contract": "contracts/OffsetHelper.sol:OffsetHelper",
        "label": "tokenSymbolsForPaths",
        "offset": 0,
        "slot": "4",
        "type": "t_array(t_string_storage)dyn_storage"
      },
      {
        "astId": 5717,
        "contract": "contracts/OffsetHelper.sol:OffsetHelper",
        "label": "paths",
        "offset": 0,
        "slot": "5",
        "type": "t_array(t_array(t_address)dyn_storage)dyn_storage"
      },
      {
        "astId": 5719,
        "contract": "contracts/OffsetHelper.sol:OffsetHelper",
        "label": "dexRouterAddress",
        "offset": 0,
        "slot": "6",
        "type": "t_address"
      },
      {
        "astId": 5725,
        "contract": "contracts/OffsetHelper.sol:OffsetHelper",
        "label": "balances",
        "offset": 0,
        "slot": "7",
        "type": "t_mapping(t_address,t_mapping(t_address,t_uint256))"
      }
    ],
    "types": {
      "t_address": {
        "encoding": "inplace",
        "label": "address",
        "numberOfBytes": "20"
      },
      "t_array(t_address)dyn_storage": {
        "base": "t_address",
        "encoding": "dynamic_array",
        "label": "address[]",
        "numberOfBytes": "32"
      },
      "t_array(t_array(t_address)dyn_storage)dyn_storage": {
        "base": "t_array(t_address)dyn_storage",
        "encoding": "dynamic_array",
        "label": "address[][]",
        "numberOfBytes": "32"
      },
      "t_array(t_string_storage)dyn_storage": {
        "base": "t_string_storage",
        "encoding": "dynamic_array",
        "label": "string[]",
        "numberOfBytes": "32"
      },
      "t_mapping(t_address,t_array(t_address)dyn_storage)": {
        "encoding": "mapping",
        "key": "t_address",
        "label": "mapping(address => address[])",
        "numberOfBytes": "32",
        "value": "t_array(t_address)dyn_storage"
      },
      "t_mapping(t_address,t_mapping(t_address,t_uint256))": {
        "encoding": "mapping",
        "key": "t_address",
        "label": "mapping(address => mapping(address => uint256))",
        "numberOfBytes": "32",
        "value": "t_mapping(t_address,t_uint256)"
      },
      "t_mapping(t_address,t_uint256)": {
        "encoding": "mapping",
        "key": "t_address",
        "label": "mapping(address => uint256)",
        "numberOfBytes": "32",
        "value": "t_uint256"
      },
      "t_mapping(t_string_memory_ptr,t_array(t_address)dyn_storage)": {
        "encoding": "mapping",
        "key": "t_string_memory_ptr",
        "label": "mapping(string => address[])",
        "numberOfBytes": "32",
        "value": "t_array(t_address)dyn_storage"
      },
      "t_string_memory_ptr": {
        "encoding": "bytes",
        "label": "string",
        "numberOfBytes": "32"
      },
      "t_string_storage": {
        "encoding": "bytes",
        "label": "string",
        "numberOfBytes": "32"
      },
      "t_uint256": {
        "encoding": "inplace",
        "label": "uint256",
        "numberOfBytes": "32"
      }
    }
  }
}